{
	"assignments/modifiers.sol": {
		"UserInfo": {
			"abi": [
				{
					"inputs": [],
					"stateMutability": "nonpayable",
					"type": "constructor"
				},
				{
					"inputs": [
						{
							"internalType": "uint256",
							"name": "_amount",
							"type": "uint256"
						}
					],
					"name": "addFund",
					"outputs": [],
					"stateMutability": "payable",
					"type": "function"
				},
				{
					"inputs": [],
					"name": "deposit",
					"outputs": [],
					"stateMutability": "payable",
					"type": "function"
				},
				{
					"inputs": [],
					"name": "getBalance",
					"outputs": [
						{
							"internalType": "uint256",
							"name": "",
							"type": "uint256"
						}
					],
					"stateMutability": "view",
					"type": "function"
				},
				{
					"inputs": [],
					"name": "getUserDetails",
					"outputs": [
						{
							"internalType": "string",
							"name": "",
							"type": "string"
						},
						{
							"internalType": "uint256",
							"name": "",
							"type": "uint256"
						},
						{
							"internalType": "uint256",
							"name": "",
							"type": "uint256"
						}
					],
					"stateMutability": "view",
					"type": "function"
				},
				{
					"inputs": [
						{
							"internalType": "string",
							"name": "_name",
							"type": "string"
						},
						{
							"internalType": "uint256",
							"name": "_age",
							"type": "uint256"
						}
					],
					"name": "setUserDetails",
					"outputs": [],
					"stateMutability": "nonpayable",
					"type": "function"
				},
				{
					"inputs": [
						{
							"internalType": "address",
							"name": "",
							"type": "address"
						}
					],
					"name": "users",
					"outputs": [
						{
							"internalType": "string",
							"name": "name",
							"type": "string"
						},
						{
							"internalType": "uint256",
							"name": "age",
							"type": "uint256"
						},
						{
							"internalType": "uint256",
							"name": "balance",
							"type": "uint256"
						},
						{
							"internalType": "bool",
							"name": "hasDeposited",
							"type": "bool"
						}
					],
					"stateMutability": "view",
					"type": "function"
				},
				{
					"inputs": [
						{
							"internalType": "uint256",
							"name": "_amount",
							"type": "uint256"
						}
					],
					"name": "withdraw",
					"outputs": [],
					"stateMutability": "nonpayable",
					"type": "function"
				}
			],
			"devdoc": {
				"kind": "dev",
				"methods": {},
				"version": 1
			},
			"evm": {
				"assembly": "    /* \"assignments/modifiers.sol\":66:1855  contract UserInfo {... */\n  mstore(0x40, 0x80)\n    /* \"assignments/modifiers.sol\":757:815  constructor() {... */\n  callvalue\n  dup1\n  iszero\n  tag_1\n  jumpi\n  0x00\n  dup1\n  revert\ntag_1:\n  pop\n    /* \"assignments/modifiers.sol\":797:807  msg.sender */\n  caller\n    /* \"assignments/modifiers.sol\":781:786  owner */\n  0x01\n  0x00\n    /* \"assignments/modifiers.sol\":781:808  owner = payable(msg.sender) */\n  0x0100\n  exp\n  dup2\n  sload\n  dup2\n  0xffffffffffffffffffffffffffffffffffffffff\n  mul\n  not\n  and\n  swap1\n  dup4\n  0xffffffffffffffffffffffffffffffffffffffff\n  and\n  mul\n  or\n  swap1\n  sstore\n  pop\n    /* \"assignments/modifiers.sol\":66:1855  contract UserInfo {... */\n  dataSize(sub_0)\n  dup1\n  dataOffset(sub_0)\n  0x00\n  codecopy\n  0x00\n  return\nstop\n\nsub_0: assembly {\n        /* \"assignments/modifiers.sol\":66:1855  contract UserInfo {... */\n      mstore(0x40, 0x80)\n      jumpi(tag_1, lt(calldatasize, 0x04))\n      shr(0xe0, calldataload(0x00))\n      dup1\n      0x346c96e9\n      gt\n      tag_9\n      jumpi\n      dup1\n      0x346c96e9\n      eq\n      tag_5\n      jumpi\n      dup1\n      0x942886be\n      eq\n      tag_6\n      jumpi\n      dup1\n      0xa87430ba\n      eq\n      tag_7\n      jumpi\n      dup1\n      0xd0e30db0\n      eq\n      tag_8\n      jumpi\n      jump(tag_1)\n    tag_9:\n      dup1\n      0x08f6f76e\n      eq\n      tag_2\n      jumpi\n      dup1\n      0x12065fe0\n      eq\n      tag_3\n      jumpi\n      dup1\n      0x2e1a7d4d\n      eq\n      tag_4\n      jumpi\n    tag_1:\n      0x00\n      dup1\n      revert\n        /* \"assignments/modifiers.sol\":821:974  function setUserDetails(string calldata _name, uint256 _age) public {... */\n    tag_2:\n      callvalue\n      dup1\n      iszero\n      tag_10\n      jumpi\n      0x00\n      dup1\n      revert\n    tag_10:\n      pop\n      tag_11\n      0x04\n      dup1\n      calldatasize\n      sub\n      dup2\n      add\n      swap1\n      tag_12\n      swap2\n      swap1\n      tag_13\n      jump\t// in\n    tag_12:\n      tag_14\n      jump\t// in\n    tag_11:\n      stop\n        /* \"assignments/modifiers.sol\":1643:1750  function getBalance() public view onlyOwner returns (uint256) {... */\n    tag_3:\n      callvalue\n      dup1\n      iszero\n      tag_15\n      jumpi\n      0x00\n      dup1\n      revert\n    tag_15:\n      pop\n      tag_16\n      tag_17\n      jump\t// in\n    tag_16:\n      mload(0x40)\n      tag_18\n      swap2\n      swap1\n      tag_19\n      jump\t// in\n    tag_18:\n      mload(0x40)\n      dup1\n      swap2\n      sub\n      swap1\n      return\n        /* \"assignments/modifiers.sol\":1470:1637  function withdraw(uint256 _amount) public onlyOwner {... */\n    tag_4:\n      callvalue\n      dup1\n      iszero\n      tag_20\n      jumpi\n      0x00\n      dup1\n      revert\n    tag_20:\n      pop\n      tag_21\n      0x04\n      dup1\n      calldatasize\n      sub\n      dup2\n      add\n      swap1\n      tag_22\n      swap2\n      swap1\n      tag_23\n      jump\t// in\n    tag_22:\n      tag_24\n      jump\t// in\n    tag_21:\n      stop\n        /* \"assignments/modifiers.sol\":1313:1464  function addFund(uint256 _amount) public payable hasDeposited amountGreaterThanFee(_amount) {... */\n    tag_5:\n      tag_25\n      0x04\n      dup1\n      calldatasize\n      sub\n      dup2\n      add\n      swap1\n      tag_26\n      swap2\n      swap1\n      tag_23\n      jump\t// in\n    tag_26:\n      tag_27\n      jump\t// in\n    tag_25:\n      stop\n        /* \"assignments/modifiers.sol\":980:1165  function getUserDetails() public view returns (string memory, uint256, uint256) {... */\n    tag_6:\n      callvalue\n      dup1\n      iszero\n      tag_28\n      jumpi\n      0x00\n      dup1\n      revert\n    tag_28:\n      pop\n      tag_29\n      tag_30\n      jump\t// in\n    tag_29:\n      mload(0x40)\n      tag_31\n      swap4\n      swap3\n      swap2\n      swap1\n      tag_32\n      jump\t// in\n    tag_31:\n      mload(0x40)\n      dup1\n      swap2\n      sub\n      swap1\n      return\n        /* \"assignments/modifiers.sol\":214:251  mapping(address => User) public users */\n    tag_7:\n      callvalue\n      dup1\n      iszero\n      tag_33\n      jumpi\n      0x00\n      dup1\n      revert\n    tag_33:\n      pop\n      tag_34\n      0x04\n      dup1\n      calldatasize\n      sub\n      dup2\n      add\n      swap1\n      tag_35\n      swap2\n      swap1\n      tag_36\n      jump\t// in\n    tag_35:\n      tag_37\n      jump\t// in\n    tag_34:\n      mload(0x40)\n      tag_38\n      swap5\n      swap4\n      swap3\n      swap2\n      swap1\n      tag_39\n      jump\t// in\n    tag_38:\n      mload(0x40)\n      dup1\n      swap2\n      sub\n      swap1\n      return\n        /* \"assignments/modifiers.sol\":1171:1307  function deposit() public payable {... */\n    tag_8:\n      tag_40\n      tag_41\n      jump\t// in\n    tag_40:\n      stop\n        /* \"assignments/modifiers.sol\":821:974  function setUserDetails(string calldata _name, uint256 _age) public {... */\n    tag_14:\n        /* \"assignments/modifiers.sol\":924:929  _name */\n      dup3\n      dup3\n        /* \"assignments/modifiers.sol\":899:904  users */\n      0x00\n        /* \"assignments/modifiers.sol\":899:916  users[msg.sender] */\n      dup1\n        /* \"assignments/modifiers.sol\":905:915  msg.sender */\n      caller\n        /* \"assignments/modifiers.sol\":899:916  users[msg.sender] */\n      0xffffffffffffffffffffffffffffffffffffffff\n      and\n      0xffffffffffffffffffffffffffffffffffffffff\n      and\n      dup2\n      mstore\n      0x20\n      add\n      swap1\n      dup2\n      mstore\n      0x20\n      add\n      0x00\n      keccak256\n        /* \"assignments/modifiers.sol\":899:921  users[msg.sender].name */\n      0x00\n      add\n        /* \"assignments/modifiers.sol\":899:929  users[msg.sender].name = _name */\n      swap2\n      dup3\n      tag_43\n      swap3\n      swap2\n      swap1\n      tag_44\n      jump\t// in\n    tag_43:\n      pop\n        /* \"assignments/modifiers.sol\":963:967  _age */\n      dup1\n        /* \"assignments/modifiers.sol\":939:944  users */\n      0x00\n        /* \"assignments/modifiers.sol\":939:956  users[msg.sender] */\n      dup1\n        /* \"assignments/modifiers.sol\":945:955  msg.sender */\n      caller\n        /* \"assignments/modifiers.sol\":939:956  users[msg.sender] */\n      0xffffffffffffffffffffffffffffffffffffffff\n      and\n      0xffffffffffffffffffffffffffffffffffffffff\n      and\n      dup2\n      mstore\n      0x20\n      add\n      swap1\n      dup2\n      mstore\n      0x20\n      add\n      0x00\n      keccak256\n        /* \"assignments/modifiers.sol\":939:960  users[msg.sender].age */\n      0x01\n      add\n        /* \"assignments/modifiers.sol\":939:967  users[msg.sender].age = _age */\n      dup2\n      swap1\n      sstore\n      pop\n        /* \"assignments/modifiers.sol\":821:974  function setUserDetails(string calldata _name, uint256 _age) public {... */\n      pop\n      pop\n      pop\n      jump\t// out\n        /* \"assignments/modifiers.sol\":1643:1750  function getBalance() public view onlyOwner returns (uint256) {... */\n    tag_17:\n        /* \"assignments/modifiers.sol\":1696:1703  uint256 */\n      0x00\n        /* \"assignments/modifiers.sol\":364:369  owner */\n      0x01\n      0x00\n      swap1\n      sload\n      swap1\n      0x0100\n      exp\n      swap1\n      div\n      0xffffffffffffffffffffffffffffffffffffffff\n      and\n        /* \"assignments/modifiers.sol\":350:369  msg.sender == owner */\n      0xffffffffffffffffffffffffffffffffffffffff\n      and\n        /* \"assignments/modifiers.sol\":350:360  msg.sender */\n      caller\n        /* \"assignments/modifiers.sol\":350:369  msg.sender == owner */\n      0xffffffffffffffffffffffffffffffffffffffff\n      and\n      eq\n        /* \"assignments/modifiers.sol\":342:416  require(msg.sender == owner, \"Only the contract owner can withdraw funds\") */\n      tag_46\n      jumpi\n      mload(0x40)\n      0x08c379a000000000000000000000000000000000000000000000000000000000\n      dup2\n      mstore\n      0x04\n      add\n      tag_47\n      swap1\n      tag_48\n      jump\t// in\n    tag_47:\n      mload(0x40)\n      dup1\n      swap2\n      sub\n      swap1\n      revert\n    tag_46:\n        /* \"assignments/modifiers.sol\":1722:1743  address(this).balance */\n      selfbalance\n        /* \"assignments/modifiers.sol\":1715:1743  return address(this).balance */\n      swap1\n      pop\n        /* \"assignments/modifiers.sol\":1643:1750  function getBalance() public view onlyOwner returns (uint256) {... */\n      swap1\n      jump\t// out\n        /* \"assignments/modifiers.sol\":1470:1637  function withdraw(uint256 _amount) public onlyOwner {... */\n    tag_24:\n        /* \"assignments/modifiers.sol\":364:369  owner */\n      0x01\n      0x00\n      swap1\n      sload\n      swap1\n      0x0100\n      exp\n      swap1\n      div\n      0xffffffffffffffffffffffffffffffffffffffff\n      and\n        /* \"assignments/modifiers.sol\":350:369  msg.sender == owner */\n      0xffffffffffffffffffffffffffffffffffffffff\n      and\n        /* \"assignments/modifiers.sol\":350:360  msg.sender */\n      caller\n        /* \"assignments/modifiers.sol\":350:369  msg.sender == owner */\n      0xffffffffffffffffffffffffffffffffffffffff\n      and\n      eq\n        /* \"assignments/modifiers.sol\":342:416  require(msg.sender == owner, \"Only the contract owner can withdraw funds\") */\n      tag_51\n      jumpi\n      mload(0x40)\n      0x08c379a000000000000000000000000000000000000000000000000000000000\n      dup2\n      mstore\n      0x04\n      add\n      tag_52\n      swap1\n      tag_48\n      jump\t// in\n    tag_52:\n      mload(0x40)\n      dup1\n      swap2\n      sub\n      swap1\n      revert\n    tag_51:\n        /* \"assignments/modifiers.sol\":1565:1572  _amount */\n      dup1\n        /* \"assignments/modifiers.sol\":1540:1561  address(this).balance */\n      selfbalance\n        /* \"assignments/modifiers.sol\":1540:1572  address(this).balance >= _amount */\n      lt\n      iszero\n        /* \"assignments/modifiers.sol\":1532:1597  require(address(this).balance >= _amount, \"Insufficient balance\") */\n      tag_54\n      jumpi\n      mload(0x40)\n      0x08c379a000000000000000000000000000000000000000000000000000000000\n      dup2\n      mstore\n      0x04\n      add\n      tag_55\n      swap1\n      tag_56\n      jump\t// in\n    tag_55:\n      mload(0x40)\n      dup1\n      swap2\n      sub\n      swap1\n      revert\n    tag_54:\n        /* \"assignments/modifiers.sol\":1607:1612  owner */\n      0x01\n      0x00\n      swap1\n      sload\n      swap1\n      0x0100\n      exp\n      swap1\n      div\n      0xffffffffffffffffffffffffffffffffffffffff\n      and\n        /* \"assignments/modifiers.sol\":1607:1621  owner.transfer */\n      0xffffffffffffffffffffffffffffffffffffffff\n      and\n        /* \"assignments/modifiers.sol\":1607:1630  owner.transfer(_amount) */\n      0x08fc\n        /* \"assignments/modifiers.sol\":1622:1629  _amount */\n      dup3\n        /* \"assignments/modifiers.sol\":1607:1630  owner.transfer(_amount) */\n      swap1\n      dup2\n      iszero\n      mul\n      swap1\n      mload(0x40)\n      0x00\n      mload(0x40)\n      dup1\n      dup4\n      sub\n      dup2\n      dup6\n      dup9\n      dup9\n      call\n      swap4\n      pop\n      pop\n      pop\n      pop\n      iszero\n      dup1\n      iszero\n      tag_58\n      jumpi\n      returndatasize\n      0x00\n      dup1\n      returndatacopy\n      revert(0x00, returndatasize)\n    tag_58:\n      pop\n        /* \"assignments/modifiers.sol\":1470:1637  function withdraw(uint256 _amount) public onlyOwner {... */\n      pop\n      jump\t// out\n        /* \"assignments/modifiers.sol\":1313:1464  function addFund(uint256 _amount) public payable hasDeposited amountGreaterThanFee(_amount) {... */\n    tag_27:\n        /* \"assignments/modifiers.sol\":482:487  users */\n      0x00\n        /* \"assignments/modifiers.sol\":482:499  users[msg.sender] */\n      dup1\n        /* \"assignments/modifiers.sol\":488:498  msg.sender */\n      caller\n        /* \"assignments/modifiers.sol\":482:499  users[msg.sender] */\n      0xffffffffffffffffffffffffffffffffffffffff\n      and\n      0xffffffffffffffffffffffffffffffffffffffff\n      and\n      dup2\n      mstore\n      0x20\n      add\n      swap1\n      dup2\n      mstore\n      0x20\n      add\n      0x00\n      keccak256\n        /* \"assignments/modifiers.sol\":482:512  users[msg.sender].hasDeposited */\n      0x03\n      add\n      0x00\n      swap1\n      sload\n      swap1\n      0x0100\n      exp\n      swap1\n      div\n      0xff\n      and\n        /* \"assignments/modifiers.sol\":474:567  require(users[msg.sender].hasDeposited, \"User must have deposited before increasing balance\") */\n      tag_60\n      jumpi\n      mload(0x40)\n      0x08c379a000000000000000000000000000000000000000000000000000000000\n      dup2\n      mstore\n      0x04\n      add\n      tag_61\n      swap1\n      tag_62\n      jump\t// in\n    tag_61:\n      mload(0x40)\n      dup1\n      swap2\n      sub\n      swap1\n      revert\n    tag_60:\n        /* \"assignments/modifiers.sol\":1396:1403  _amount */\n      dup1\n        /* \"assignments/modifiers.sol\":288:290  10 */\n      0x0a\n        /* \"assignments/modifiers.sol\":656:663  _amount */\n      dup2\n        /* \"assignments/modifiers.sol\":656:669  _amount > Fee */\n      gt\n        /* \"assignments/modifiers.sol\":648:705  require(_amount > Fee, \"Amount must be greater than fee\") */\n      tag_64\n      jumpi\n      mload(0x40)\n      0x08c379a000000000000000000000000000000000000000000000000000000000\n      dup2\n      mstore\n      0x04\n      add\n      tag_65\n      swap1\n      tag_66\n      jump\t// in\n    tag_65:\n      mload(0x40)\n      dup1\n      swap2\n      sub\n      swap1\n      revert\n    tag_64:\n        /* \"assignments/modifiers.sol\":288:290  10 */\n      0x0a\n        /* \"assignments/modifiers.sol\":1444:1451  _amount */\n      dup3\n        /* \"assignments/modifiers.sol\":1444:1457  _amount - Fee */\n      tag_68\n      swap2\n      swap1\n      tag_69\n      jump\t// in\n    tag_68:\n        /* \"assignments/modifiers.sol\":1415:1420  users */\n      0x00\n        /* \"assignments/modifiers.sol\":1415:1432  users[msg.sender] */\n      dup1\n        /* \"assignments/modifiers.sol\":1421:1431  msg.sender */\n      caller\n        /* \"assignments/modifiers.sol\":1415:1432  users[msg.sender] */\n      0xffffffffffffffffffffffffffffffffffffffff\n      and\n      0xffffffffffffffffffffffffffffffffffffffff\n      and\n      dup2\n      mstore\n      0x20\n      add\n      swap1\n      dup2\n      mstore\n      0x20\n      add\n      0x00\n      keccak256\n        /* \"assignments/modifiers.sol\":1415:1440  users[msg.sender].balance */\n      0x02\n      add\n      0x00\n        /* \"assignments/modifiers.sol\":1415:1457  users[msg.sender].balance += _amount - Fee */\n      dup3\n      dup3\n      sload\n      tag_70\n      swap2\n      swap1\n      tag_71\n      jump\t// in\n    tag_70:\n      swap3\n      pop\n      pop\n      dup2\n      swap1\n      sstore\n      pop\n        /* \"assignments/modifiers.sol\":577:578  _ */\n      pop\n        /* \"assignments/modifiers.sol\":1313:1464  function addFund(uint256 _amount) public payable hasDeposited amountGreaterThanFee(_amount) {... */\n      pop\n      jump\t// out\n        /* \"assignments/modifiers.sol\":980:1165  function getUserDetails() public view returns (string memory, uint256, uint256) {... */\n    tag_30:\n        /* \"assignments/modifiers.sol\":1027:1040  string memory */\n      0x60\n        /* \"assignments/modifiers.sol\":1042:1049  uint256 */\n      0x00\n        /* \"assignments/modifiers.sol\":1051:1058  uint256 */\n      dup1\n        /* \"assignments/modifiers.sol\":1070:1086  User memory user */\n      0x00\n        /* \"assignments/modifiers.sol\":1089:1094  users */\n      dup1\n        /* \"assignments/modifiers.sol\":1089:1106  users[msg.sender] */\n      0x00\n        /* \"assignments/modifiers.sol\":1095:1105  msg.sender */\n      caller\n        /* \"assignments/modifiers.sol\":1089:1106  users[msg.sender] */\n      0xffffffffffffffffffffffffffffffffffffffff\n      and\n      0xffffffffffffffffffffffffffffffffffffffff\n      and\n      dup2\n      mstore\n      0x20\n      add\n      swap1\n      dup2\n      mstore\n      0x20\n      add\n      0x00\n      keccak256\n        /* \"assignments/modifiers.sol\":1070:1106  User memory user = users[msg.sender] */\n      mload(0x40)\n      dup1\n      0x80\n      add\n      0x40\n      mstore\n      swap1\n      dup2\n      0x00\n      dup3\n      add\n      dup1\n      sload\n      tag_73\n      swap1\n      tag_74\n      jump\t// in\n    tag_73:\n      dup1\n      0x1f\n      add\n      0x20\n      dup1\n      swap2\n      div\n      mul\n      0x20\n      add\n      mload(0x40)\n      swap1\n      dup2\n      add\n      0x40\n      mstore\n      dup1\n      swap3\n      swap2\n      swap1\n      dup2\n      dup2\n      mstore\n      0x20\n      add\n      dup3\n      dup1\n      sload\n      tag_75\n      swap1\n      tag_74\n      jump\t// in\n    tag_75:\n      dup1\n      iszero\n      tag_76\n      jumpi\n      dup1\n      0x1f\n      lt\n      tag_77\n      jumpi\n      0x0100\n      dup1\n      dup4\n      sload\n      div\n      mul\n      dup4\n      mstore\n      swap2\n      0x20\n      add\n      swap2\n      jump(tag_76)\n    tag_77:\n      dup3\n      add\n      swap2\n      swap1\n      0x00\n      mstore\n      keccak256(0x00, 0x20)\n      swap1\n    tag_78:\n      dup2\n      sload\n      dup2\n      mstore\n      swap1\n      0x01\n      add\n      swap1\n      0x20\n      add\n      dup1\n      dup4\n      gt\n      tag_78\n      jumpi\n      dup3\n      swap1\n      sub\n      0x1f\n      and\n      dup3\n      add\n      swap2\n    tag_76:\n      pop\n      pop\n      pop\n      pop\n      pop\n      dup2\n      mstore\n      0x20\n      add\n      0x01\n      dup3\n      add\n      sload\n      dup2\n      mstore\n      0x20\n      add\n      0x02\n      dup3\n      add\n      sload\n      dup2\n      mstore\n      0x20\n      add\n      0x03\n      dup3\n      add\n      0x00\n      swap1\n      sload\n      swap1\n      0x0100\n      exp\n      swap1\n      div\n      0xff\n      and\n      iszero\n      iszero\n      iszero\n      iszero\n      dup2\n      mstore\n      pop\n      pop\n      swap1\n      pop\n        /* \"assignments/modifiers.sol\":1124:1128  user */\n      dup1\n        /* \"assignments/modifiers.sol\":1124:1133  user.name */\n      0x00\n      add\n      mload\n        /* \"assignments/modifiers.sol\":1135:1139  user */\n      dup2\n        /* \"assignments/modifiers.sol\":1135:1143  user.age */\n      0x20\n      add\n      mload\n        /* \"assignments/modifiers.sol\":1145:1149  user */\n      dup3\n        /* \"assignments/modifiers.sol\":1145:1157  user.balance */\n      0x40\n      add\n      mload\n        /* \"assignments/modifiers.sol\":1116:1158  return (user.name, user.age, user.balance) */\n      swap4\n      pop\n      swap4\n      pop\n      swap4\n      pop\n      pop\n        /* \"assignments/modifiers.sol\":980:1165  function getUserDetails() public view returns (string memory, uint256, uint256) {... */\n      swap1\n      swap2\n      swap3\n      jump\t// out\n        /* \"assignments/modifiers.sol\":214:251  mapping(address => User) public users */\n    tag_37:\n      mstore(0x20, 0x00)\n      dup1\n      0x00\n      mstore\n      keccak256(0x00, 0x40)\n      0x00\n      swap2\n      pop\n      swap1\n      pop\n      dup1\n      0x00\n      add\n      dup1\n      sload\n      tag_79\n      swap1\n      tag_74\n      jump\t// in\n    tag_79:\n      dup1\n      0x1f\n      add\n      0x20\n      dup1\n      swap2\n      div\n      mul\n      0x20\n      add\n      mload(0x40)\n      swap1\n      dup2\n      add\n      0x40\n      mstore\n      dup1\n      swap3\n      swap2\n      swap1\n      dup2\n      dup2\n      mstore\n      0x20\n      add\n      dup3\n      dup1\n      sload\n      tag_80\n      swap1\n      tag_74\n      jump\t// in\n    tag_80:\n      dup1\n      iszero\n      tag_81\n      jumpi\n      dup1\n      0x1f\n      lt\n      tag_82\n      jumpi\n      0x0100\n      dup1\n      dup4\n      sload\n      div\n      mul\n      dup4\n      mstore\n      swap2\n      0x20\n      add\n      swap2\n      jump(tag_81)\n    tag_82:\n      dup3\n      add\n      swap2\n      swap1\n      0x00\n      mstore\n      keccak256(0x00, 0x20)\n      swap1\n    tag_83:\n      dup2\n      sload\n      dup2\n      mstore\n      swap1\n      0x01\n      add\n      swap1\n      0x20\n      add\n      dup1\n      dup4\n      gt\n      tag_83\n      jumpi\n      dup3\n      swap1\n      sub\n      0x1f\n      and\n      dup3\n      add\n      swap2\n    tag_81:\n      pop\n      pop\n      pop\n      pop\n      pop\n      swap1\n      dup1\n      0x01\n      add\n      sload\n      swap1\n      dup1\n      0x02\n      add\n      sload\n      swap1\n      dup1\n      0x03\n      add\n      0x00\n      swap1\n      sload\n      swap1\n      0x0100\n      exp\n      swap1\n      div\n      0xff\n      and\n      swap1\n      pop\n      dup5\n      jump\t// out\n        /* \"assignments/modifiers.sol\":1171:1307  function deposit() public payable {... */\n    tag_41:\n        /* \"assignments/modifiers.sol\":1244:1253  msg.value */\n      callvalue\n        /* \"assignments/modifiers.sol\":1215:1220  users */\n      0x00\n        /* \"assignments/modifiers.sol\":1215:1232  users[msg.sender] */\n      dup1\n        /* \"assignments/modifiers.sol\":1221:1231  msg.sender */\n      caller\n        /* \"assignments/modifiers.sol\":1215:1232  users[msg.sender] */\n      0xffffffffffffffffffffffffffffffffffffffff\n      and\n      0xffffffffffffffffffffffffffffffffffffffff\n      and\n      dup2\n      mstore\n      0x20\n      add\n      swap1\n      dup2\n      mstore\n      0x20\n      add\n      0x00\n      keccak256\n        /* \"assignments/modifiers.sol\":1215:1240  users[msg.sender].balance */\n      0x02\n      add\n      0x00\n        /* \"assignments/modifiers.sol\":1215:1253  users[msg.sender].balance += msg.value */\n      dup3\n      dup3\n      sload\n      tag_85\n      swap2\n      swap1\n      tag_71\n      jump\t// in\n    tag_85:\n      swap3\n      pop\n      pop\n      dup2\n      swap1\n      sstore\n      pop\n        /* \"assignments/modifiers.sol\":1296:1300  true */\n      0x01\n        /* \"assignments/modifiers.sol\":1263:1268  users */\n      0x00\n        /* \"assignments/modifiers.sol\":1263:1280  users[msg.sender] */\n      dup1\n        /* \"assignments/modifiers.sol\":1269:1279  msg.sender */\n      caller\n        /* \"assignments/modifiers.sol\":1263:1280  users[msg.sender] */\n      0xffffffffffffffffffffffffffffffffffffffff\n      and\n      0xffffffffffffffffffffffffffffffffffffffff\n      and\n      dup2\n      mstore\n      0x20\n      add\n      swap1\n      dup2\n      mstore\n      0x20\n      add\n      0x00\n      keccak256\n        /* \"assignments/modifiers.sol\":1263:1293  users[msg.sender].hasDeposited */\n      0x03\n      add\n      0x00\n        /* \"assignments/modifiers.sol\":1263:1300  users[msg.sender].hasDeposited = true */\n      0x0100\n      exp\n      dup2\n      sload\n      dup2\n      0xff\n      mul\n      not\n      and\n      swap1\n      dup4\n      iszero\n      iszero\n      mul\n      or\n      swap1\n      sstore\n      pop\n        /* \"assignments/modifiers.sol\":1171:1307  function deposit() public payable {... */\n      jump\t// out\n        /* \"#utility.yul\":88:205   */\n    tag_87:\n        /* \"#utility.yul\":197:198   */\n      0x00\n        /* \"#utility.yul\":194:195   */\n      dup1\n        /* \"#utility.yul\":187:199   */\n      revert\n        /* \"#utility.yul\":211:328   */\n    tag_88:\n        /* \"#utility.yul\":320:321   */\n      0x00\n        /* \"#utility.yul\":317:318   */\n      dup1\n        /* \"#utility.yul\":310:322   */\n      revert\n        /* \"#utility.yul\":334:451   */\n    tag_89:\n        /* \"#utility.yul\":443:444   */\n      0x00\n        /* \"#utility.yul\":440:441   */\n      dup1\n        /* \"#utility.yul\":433:445   */\n      revert\n        /* \"#utility.yul\":457:574   */\n    tag_90:\n        /* \"#utility.yul\":566:567   */\n      0x00\n        /* \"#utility.yul\":563:564   */\n      dup1\n        /* \"#utility.yul\":556:568   */\n      revert\n        /* \"#utility.yul\":580:697   */\n    tag_91:\n        /* \"#utility.yul\":689:690   */\n      0x00\n        /* \"#utility.yul\":686:687   */\n      dup1\n        /* \"#utility.yul\":679:691   */\n      revert\n        /* \"#utility.yul\":717:1270   */\n    tag_92:\n        /* \"#utility.yul\":775:783   */\n      0x00\n        /* \"#utility.yul\":785:791   */\n      dup1\n        /* \"#utility.yul\":835:838   */\n      dup4\n        /* \"#utility.yul\":828:832   */\n      0x1f\n        /* \"#utility.yul\":820:826   */\n      dup5\n        /* \"#utility.yul\":816:833   */\n      add\n        /* \"#utility.yul\":812:839   */\n      slt\n        /* \"#utility.yul\":802:924   */\n      tag_143\n      jumpi\n        /* \"#utility.yul\":843:922   */\n      tag_144\n      tag_89\n      jump\t// in\n    tag_144:\n        /* \"#utility.yul\":802:924   */\n    tag_143:\n        /* \"#utility.yul\":956:962   */\n      dup3\n        /* \"#utility.yul\":943:963   */\n      calldataload\n        /* \"#utility.yul\":933:963   */\n      swap1\n      pop\n        /* \"#utility.yul\":986:1004   */\n      0xffffffffffffffff\n        /* \"#utility.yul\":978:984   */\n      dup2\n        /* \"#utility.yul\":975:1005   */\n      gt\n        /* \"#utility.yul\":972:1089   */\n      iszero\n      tag_145\n      jumpi\n        /* \"#utility.yul\":1008:1087   */\n      tag_146\n      tag_90\n      jump\t// in\n    tag_146:\n        /* \"#utility.yul\":972:1089   */\n    tag_145:\n        /* \"#utility.yul\":1122:1126   */\n      0x20\n        /* \"#utility.yul\":1114:1120   */\n      dup4\n        /* \"#utility.yul\":1110:1127   */\n      add\n        /* \"#utility.yul\":1098:1127   */\n      swap2\n      pop\n        /* \"#utility.yul\":1176:1179   */\n      dup4\n        /* \"#utility.yul\":1168:1172   */\n      0x01\n        /* \"#utility.yul\":1160:1166   */\n      dup3\n        /* \"#utility.yul\":1156:1173   */\n      mul\n        /* \"#utility.yul\":1146:1154   */\n      dup4\n        /* \"#utility.yul\":1142:1174   */\n      add\n        /* \"#utility.yul\":1139:1180   */\n      gt\n        /* \"#utility.yul\":1136:1264   */\n      iszero\n      tag_147\n      jumpi\n        /* \"#utility.yul\":1183:1262   */\n      tag_148\n      tag_91\n      jump\t// in\n    tag_148:\n        /* \"#utility.yul\":1136:1264   */\n    tag_147:\n        /* \"#utility.yul\":717:1270   */\n      swap3\n      pop\n      swap3\n      swap1\n      pop\n      jump\t// out\n        /* \"#utility.yul\":1276:1353   */\n    tag_93:\n        /* \"#utility.yul\":1313:1320   */\n      0x00\n        /* \"#utility.yul\":1342:1347   */\n      dup2\n        /* \"#utility.yul\":1331:1347   */\n      swap1\n      pop\n        /* \"#utility.yul\":1276:1353   */\n      swap2\n      swap1\n      pop\n      jump\t// out\n        /* \"#utility.yul\":1359:1481   */\n    tag_94:\n        /* \"#utility.yul\":1432:1456   */\n      tag_151\n        /* \"#utility.yul\":1450:1455   */\n      dup2\n        /* \"#utility.yul\":1432:1456   */\n      tag_93\n      jump\t// in\n    tag_151:\n        /* \"#utility.yul\":1425:1430   */\n      dup2\n        /* \"#utility.yul\":1422:1457   */\n      eq\n        /* \"#utility.yul\":1412:1475   */\n      tag_152\n      jumpi\n        /* \"#utility.yul\":1471:1472   */\n      0x00\n        /* \"#utility.yul\":1468:1469   */\n      dup1\n        /* \"#utility.yul\":1461:1473   */\n      revert\n        /* \"#utility.yul\":1412:1475   */\n    tag_152:\n        /* \"#utility.yul\":1359:1481   */\n      pop\n      jump\t// out\n        /* \"#utility.yul\":1487:1626   */\n    tag_95:\n        /* \"#utility.yul\":1533:1538   */\n      0x00\n        /* \"#utility.yul\":1571:1577   */\n      dup2\n        /* \"#utility.yul\":1558:1578   */\n      calldataload\n        /* \"#utility.yul\":1549:1578   */\n      swap1\n      pop\n        /* \"#utility.yul\":1587:1620   */\n      tag_154\n        /* \"#utility.yul\":1614:1619   */\n      dup2\n        /* \"#utility.yul\":1587:1620   */\n      tag_94\n      jump\t// in\n    tag_154:\n        /* \"#utility.yul\":1487:1626   */\n      swap3\n      swap2\n      pop\n      pop\n      jump\t// out\n        /* \"#utility.yul\":1632:2306   */\n    tag_13:\n        /* \"#utility.yul\":1712:1718   */\n      0x00\n        /* \"#utility.yul\":1720:1726   */\n      dup1\n        /* \"#utility.yul\":1728:1734   */\n      0x00\n        /* \"#utility.yul\":1777:1779   */\n      0x40\n        /* \"#utility.yul\":1765:1774   */\n      dup5\n        /* \"#utility.yul\":1756:1763   */\n      dup7\n        /* \"#utility.yul\":1752:1775   */\n      sub\n        /* \"#utility.yul\":1748:1780   */\n      slt\n        /* \"#utility.yul\":1745:1864   */\n      iszero\n      tag_156\n      jumpi\n        /* \"#utility.yul\":1783:1862   */\n      tag_157\n      tag_87\n      jump\t// in\n    tag_157:\n        /* \"#utility.yul\":1745:1864   */\n    tag_156:\n        /* \"#utility.yul\":1931:1932   */\n      0x00\n        /* \"#utility.yul\":1920:1929   */\n      dup5\n        /* \"#utility.yul\":1916:1933   */\n      add\n        /* \"#utility.yul\":1903:1934   */\n      calldataload\n        /* \"#utility.yul\":1961:1979   */\n      0xffffffffffffffff\n        /* \"#utility.yul\":1953:1959   */\n      dup2\n        /* \"#utility.yul\":1950:1980   */\n      gt\n        /* \"#utility.yul\":1947:2064   */\n      iszero\n      tag_158\n      jumpi\n        /* \"#utility.yul\":1983:2062   */\n      tag_159\n      tag_88\n      jump\t// in\n    tag_159:\n        /* \"#utility.yul\":1947:2064   */\n    tag_158:\n        /* \"#utility.yul\":2096:2161   */\n      tag_160\n        /* \"#utility.yul\":2153:2160   */\n      dup7\n        /* \"#utility.yul\":2144:2150   */\n      dup3\n        /* \"#utility.yul\":2133:2142   */\n      dup8\n        /* \"#utility.yul\":2129:2151   */\n      add\n        /* \"#utility.yul\":2096:2161   */\n      tag_92\n      jump\t// in\n    tag_160:\n        /* \"#utility.yul\":2078:2161   */\n      swap4\n      pop\n      swap4\n      pop\n        /* \"#utility.yul\":1874:2171   */\n      pop\n        /* \"#utility.yul\":2210:2212   */\n      0x20\n        /* \"#utility.yul\":2236:2289   */\n      tag_161\n        /* \"#utility.yul\":2281:2288   */\n      dup7\n        /* \"#utility.yul\":2272:2278   */\n      dup3\n        /* \"#utility.yul\":2261:2270   */\n      dup8\n        /* \"#utility.yul\":2257:2279   */\n      add\n        /* \"#utility.yul\":2236:2289   */\n      tag_95\n      jump\t// in\n    tag_161:\n        /* \"#utility.yul\":2226:2289   */\n      swap2\n      pop\n        /* \"#utility.yul\":2181:2299   */\n      pop\n        /* \"#utility.yul\":1632:2306   */\n      swap3\n      pop\n      swap3\n      pop\n      swap3\n      jump\t// out\n        /* \"#utility.yul\":2312:2430   */\n    tag_96:\n        /* \"#utility.yul\":2399:2423   */\n      tag_163\n        /* \"#utility.yul\":2417:2422   */\n      dup2\n        /* \"#utility.yul\":2399:2423   */\n      tag_93\n      jump\t// in\n    tag_163:\n        /* \"#utility.yul\":2394:2397   */\n      dup3\n        /* \"#utility.yul\":2387:2424   */\n      mstore\n        /* \"#utility.yul\":2312:2430   */\n      pop\n      pop\n      jump\t// out\n        /* \"#utility.yul\":2436:2658   */\n    tag_19:\n        /* \"#utility.yul\":2529:2533   */\n      0x00\n        /* \"#utility.yul\":2567:2569   */\n      0x20\n        /* \"#utility.yul\":2556:2565   */\n      dup3\n        /* \"#utility.yul\":2552:2570   */\n      add\n        /* \"#utility.yul\":2544:2570   */\n      swap1\n      pop\n        /* \"#utility.yul\":2580:2651   */\n      tag_165\n        /* \"#utility.yul\":2648:2649   */\n      0x00\n        /* \"#utility.yul\":2637:2646   */\n      dup4\n        /* \"#utility.yul\":2633:2650   */\n      add\n        /* \"#utility.yul\":2624:2630   */\n      dup5\n        /* \"#utility.yul\":2580:2651   */\n      tag_96\n      jump\t// in\n    tag_165:\n        /* \"#utility.yul\":2436:2658   */\n      swap3\n      swap2\n      pop\n      pop\n      jump\t// out\n        /* \"#utility.yul\":2664:2993   */\n    tag_23:\n        /* \"#utility.yul\":2723:2729   */\n      0x00\n        /* \"#utility.yul\":2772:2774   */\n      0x20\n        /* \"#utility.yul\":2760:2769   */\n      dup3\n        /* \"#utility.yul\":2751:2758   */\n      dup5\n        /* \"#utility.yul\":2747:2770   */\n      sub\n        /* \"#utility.yul\":2743:2775   */\n      slt\n        /* \"#utility.yul\":2740:2859   */\n      iszero\n      tag_167\n      jumpi\n        /* \"#utility.yul\":2778:2857   */\n      tag_168\n      tag_87\n      jump\t// in\n    tag_168:\n        /* \"#utility.yul\":2740:2859   */\n    tag_167:\n        /* \"#utility.yul\":2898:2899   */\n      0x00\n        /* \"#utility.yul\":2923:2976   */\n      tag_169\n        /* \"#utility.yul\":2968:2975   */\n      dup5\n        /* \"#utility.yul\":2959:2965   */\n      dup3\n        /* \"#utility.yul\":2948:2957   */\n      dup6\n        /* \"#utility.yul\":2944:2966   */\n      add\n        /* \"#utility.yul\":2923:2976   */\n      tag_95\n      jump\t// in\n    tag_169:\n        /* \"#utility.yul\":2913:2976   */\n      swap2\n      pop\n        /* \"#utility.yul\":2869:2986   */\n      pop\n        /* \"#utility.yul\":2664:2993   */\n      swap3\n      swap2\n      pop\n      pop\n      jump\t// out\n        /* \"#utility.yul\":2999:3098   */\n    tag_97:\n        /* \"#utility.yul\":3051:3057   */\n      0x00\n        /* \"#utility.yul\":3085:3090   */\n      dup2\n        /* \"#utility.yul\":3079:3091   */\n      mload\n        /* \"#utility.yul\":3069:3091   */\n      swap1\n      pop\n        /* \"#utility.yul\":2999:3098   */\n      swap2\n      swap1\n      pop\n      jump\t// out\n        /* \"#utility.yul\":3104:3273   */\n    tag_98:\n        /* \"#utility.yul\":3188:3199   */\n      0x00\n        /* \"#utility.yul\":3222:3228   */\n      dup3\n        /* \"#utility.yul\":3217:3220   */\n      dup3\n        /* \"#utility.yul\":3210:3229   */\n      mstore\n        /* \"#utility.yul\":3262:3266   */\n      0x20\n        /* \"#utility.yul\":3257:3260   */\n      dup3\n        /* \"#utility.yul\":3253:3267   */\n      add\n        /* \"#utility.yul\":3238:3267   */\n      swap1\n      pop\n        /* \"#utility.yul\":3104:3273   */\n      swap3\n      swap2\n      pop\n      pop\n      jump\t// out\n        /* \"#utility.yul\":3279:3525   */\n    tag_99:\n        /* \"#utility.yul\":3360:3361   */\n      0x00\n        /* \"#utility.yul\":3370:3483   */\n    tag_173:\n        /* \"#utility.yul\":3384:3390   */\n      dup4\n        /* \"#utility.yul\":3381:3382   */\n      dup2\n        /* \"#utility.yul\":3378:3391   */\n      lt\n        /* \"#utility.yul\":3370:3483   */\n      iszero\n      tag_175\n      jumpi\n        /* \"#utility.yul\":3469:3470   */\n      dup1\n        /* \"#utility.yul\":3464:3467   */\n      dup3\n        /* \"#utility.yul\":3460:3471   */\n      add\n        /* \"#utility.yul\":3454:3472   */\n      mload\n        /* \"#utility.yul\":3450:3451   */\n      dup2\n        /* \"#utility.yul\":3445:3448   */\n      dup5\n        /* \"#utility.yul\":3441:3452   */\n      add\n        /* \"#utility.yul\":3434:3473   */\n      mstore\n        /* \"#utility.yul\":3406:3408   */\n      0x20\n        /* \"#utility.yul\":3403:3404   */\n      dup2\n        /* \"#utility.yul\":3399:3409   */\n      add\n        /* \"#utility.yul\":3394:3409   */\n      swap1\n      pop\n        /* \"#utility.yul\":3370:3483   */\n      jump(tag_173)\n    tag_175:\n        /* \"#utility.yul\":3517:3518   */\n      0x00\n        /* \"#utility.yul\":3508:3514   */\n      dup5\n        /* \"#utility.yul\":3503:3506   */\n      dup5\n        /* \"#utility.yul\":3499:3515   */\n      add\n        /* \"#utility.yul\":3492:3519   */\n      mstore\n        /* \"#utility.yul\":3341:3525   */\n      pop\n        /* \"#utility.yul\":3279:3525   */\n      pop\n      pop\n      pop\n      jump\t// out\n        /* \"#utility.yul\":3531:3633   */\n    tag_100:\n        /* \"#utility.yul\":3572:3578   */\n      0x00\n        /* \"#utility.yul\":3623:3625   */\n      0x1f\n        /* \"#utility.yul\":3619:3626   */\n      not\n        /* \"#utility.yul\":3614:3616   */\n      0x1f\n        /* \"#utility.yul\":3607:3612   */\n      dup4\n        /* \"#utility.yul\":3603:3617   */\n      add\n        /* \"#utility.yul\":3599:3627   */\n      and\n        /* \"#utility.yul\":3589:3627   */\n      swap1\n      pop\n        /* \"#utility.yul\":3531:3633   */\n      swap2\n      swap1\n      pop\n      jump\t// out\n        /* \"#utility.yul\":3639:4016   */\n    tag_101:\n        /* \"#utility.yul\":3727:3730   */\n      0x00\n        /* \"#utility.yul\":3755:3794   */\n      tag_178\n        /* \"#utility.yul\":3788:3793   */\n      dup3\n        /* \"#utility.yul\":3755:3794   */\n      tag_97\n      jump\t// in\n    tag_178:\n        /* \"#utility.yul\":3810:3881   */\n      tag_179\n        /* \"#utility.yul\":3874:3880   */\n      dup2\n        /* \"#utility.yul\":3869:3872   */\n      dup6\n        /* \"#utility.yul\":3810:3881   */\n      tag_98\n      jump\t// in\n    tag_179:\n        /* \"#utility.yul\":3803:3881   */\n      swap4\n      pop\n        /* \"#utility.yul\":3890:3955   */\n      tag_180\n        /* \"#utility.yul\":3948:3954   */\n      dup2\n        /* \"#utility.yul\":3943:3946   */\n      dup6\n        /* \"#utility.yul\":3936:3940   */\n      0x20\n        /* \"#utility.yul\":3929:3934   */\n      dup7\n        /* \"#utility.yul\":3925:3941   */\n      add\n        /* \"#utility.yul\":3890:3955   */\n      tag_99\n      jump\t// in\n    tag_180:\n        /* \"#utility.yul\":3980:4009   */\n      tag_181\n        /* \"#utility.yul\":4002:4008   */\n      dup2\n        /* \"#utility.yul\":3980:4009   */\n      tag_100\n      jump\t// in\n    tag_181:\n        /* \"#utility.yul\":3975:3978   */\n      dup5\n        /* \"#utility.yul\":3971:4010   */\n      add\n        /* \"#utility.yul\":3964:4010   */\n      swap2\n      pop\n        /* \"#utility.yul\":3731:4016   */\n      pop\n        /* \"#utility.yul\":3639:4016   */\n      swap3\n      swap2\n      pop\n      pop\n      jump\t// out\n        /* \"#utility.yul\":4022:4555   */\n    tag_32:\n        /* \"#utility.yul\":4191:4195   */\n      0x00\n        /* \"#utility.yul\":4229:4231   */\n      0x60\n        /* \"#utility.yul\":4218:4227   */\n      dup3\n        /* \"#utility.yul\":4214:4232   */\n      add\n        /* \"#utility.yul\":4206:4232   */\n      swap1\n      pop\n        /* \"#utility.yul\":4278:4287   */\n      dup2\n        /* \"#utility.yul\":4272:4276   */\n      dup2\n        /* \"#utility.yul\":4268:4288   */\n      sub\n        /* \"#utility.yul\":4264:4265   */\n      0x00\n        /* \"#utility.yul\":4253:4262   */\n      dup4\n        /* \"#utility.yul\":4249:4266   */\n      add\n        /* \"#utility.yul\":4242:4289   */\n      mstore\n        /* \"#utility.yul\":4306:4384   */\n      tag_183\n        /* \"#utility.yul\":4379:4383   */\n      dup2\n        /* \"#utility.yul\":4370:4376   */\n      dup7\n        /* \"#utility.yul\":4306:4384   */\n      tag_101\n      jump\t// in\n    tag_183:\n        /* \"#utility.yul\":4298:4384   */\n      swap1\n      pop\n        /* \"#utility.yul\":4394:4466   */\n      tag_184\n        /* \"#utility.yul\":4462:4464   */\n      0x20\n        /* \"#utility.yul\":4451:4460   */\n      dup4\n        /* \"#utility.yul\":4447:4465   */\n      add\n        /* \"#utility.yul\":4438:4444   */\n      dup6\n        /* \"#utility.yul\":4394:4466   */\n      tag_96\n      jump\t// in\n    tag_184:\n        /* \"#utility.yul\":4476:4548   */\n      tag_185\n        /* \"#utility.yul\":4544:4546   */\n      0x40\n        /* \"#utility.yul\":4533:4542   */\n      dup4\n        /* \"#utility.yul\":4529:4547   */\n      add\n        /* \"#utility.yul\":4520:4526   */\n      dup5\n        /* \"#utility.yul\":4476:4548   */\n      tag_96\n      jump\t// in\n    tag_185:\n        /* \"#utility.yul\":4022:4555   */\n      swap5\n      swap4\n      pop\n      pop\n      pop\n      pop\n      jump\t// out\n        /* \"#utility.yul\":4561:4687   */\n    tag_102:\n        /* \"#utility.yul\":4598:4605   */\n      0x00\n        /* \"#utility.yul\":4638:4680   */\n      0xffffffffffffffffffffffffffffffffffffffff\n        /* \"#utility.yul\":4631:4636   */\n      dup3\n        /* \"#utility.yul\":4627:4681   */\n      and\n        /* \"#utility.yul\":4616:4681   */\n      swap1\n      pop\n        /* \"#utility.yul\":4561:4687   */\n      swap2\n      swap1\n      pop\n      jump\t// out\n        /* \"#utility.yul\":4693:4789   */\n    tag_103:\n        /* \"#utility.yul\":4730:4737   */\n      0x00\n        /* \"#utility.yul\":4759:4783   */\n      tag_188\n        /* \"#utility.yul\":4777:4782   */\n      dup3\n        /* \"#utility.yul\":4759:4783   */\n      tag_102\n      jump\t// in\n    tag_188:\n        /* \"#utility.yul\":4748:4783   */\n      swap1\n      pop\n        /* \"#utility.yul\":4693:4789   */\n      swap2\n      swap1\n      pop\n      jump\t// out\n        /* \"#utility.yul\":4795:4917   */\n    tag_104:\n        /* \"#utility.yul\":4868:4892   */\n      tag_190\n        /* \"#utility.yul\":4886:4891   */\n      dup2\n        /* \"#utility.yul\":4868:4892   */\n      tag_103\n      jump\t// in\n    tag_190:\n        /* \"#utility.yul\":4861:4866   */\n      dup2\n        /* \"#utility.yul\":4858:4893   */\n      eq\n        /* \"#utility.yul\":4848:4911   */\n      tag_191\n      jumpi\n        /* \"#utility.yul\":4907:4908   */\n      0x00\n        /* \"#utility.yul\":4904:4905   */\n      dup1\n        /* \"#utility.yul\":4897:4909   */\n      revert\n        /* \"#utility.yul\":4848:4911   */\n    tag_191:\n        /* \"#utility.yul\":4795:4917   */\n      pop\n      jump\t// out\n        /* \"#utility.yul\":4923:5062   */\n    tag_105:\n        /* \"#utility.yul\":4969:4974   */\n      0x00\n        /* \"#utility.yul\":5007:5013   */\n      dup2\n        /* \"#utility.yul\":4994:5014   */\n      calldataload\n        /* \"#utility.yul\":4985:5014   */\n      swap1\n      pop\n        /* \"#utility.yul\":5023:5056   */\n      tag_193\n        /* \"#utility.yul\":5050:5055   */\n      dup2\n        /* \"#utility.yul\":5023:5056   */\n      tag_104\n      jump\t// in\n    tag_193:\n        /* \"#utility.yul\":4923:5062   */\n      swap3\n      swap2\n      pop\n      pop\n      jump\t// out\n        /* \"#utility.yul\":5068:5397   */\n    tag_36:\n        /* \"#utility.yul\":5127:5133   */\n      0x00\n        /* \"#utility.yul\":5176:5178   */\n      0x20\n        /* \"#utility.yul\":5164:5173   */\n      dup3\n        /* \"#utility.yul\":5155:5162   */\n      dup5\n        /* \"#utility.yul\":5151:5174   */\n      sub\n        /* \"#utility.yul\":5147:5179   */\n      slt\n        /* \"#utility.yul\":5144:5263   */\n      iszero\n      tag_195\n      jumpi\n        /* \"#utility.yul\":5182:5261   */\n      tag_196\n      tag_87\n      jump\t// in\n    tag_196:\n        /* \"#utility.yul\":5144:5263   */\n    tag_195:\n        /* \"#utility.yul\":5302:5303   */\n      0x00\n        /* \"#utility.yul\":5327:5380   */\n      tag_197\n        /* \"#utility.yul\":5372:5379   */\n      dup5\n        /* \"#utility.yul\":5363:5369   */\n      dup3\n        /* \"#utility.yul\":5352:5361   */\n      dup6\n        /* \"#utility.yul\":5348:5370   */\n      add\n        /* \"#utility.yul\":5327:5380   */\n      tag_105\n      jump\t// in\n    tag_197:\n        /* \"#utility.yul\":5317:5380   */\n      swap2\n      pop\n        /* \"#utility.yul\":5273:5390   */\n      pop\n        /* \"#utility.yul\":5068:5397   */\n      swap3\n      swap2\n      pop\n      pop\n      jump\t// out\n        /* \"#utility.yul\":5403:5493   */\n    tag_106:\n        /* \"#utility.yul\":5437:5444   */\n      0x00\n        /* \"#utility.yul\":5480:5485   */\n      dup2\n        /* \"#utility.yul\":5473:5486   */\n      iszero\n        /* \"#utility.yul\":5466:5487   */\n      iszero\n        /* \"#utility.yul\":5455:5487   */\n      swap1\n      pop\n        /* \"#utility.yul\":5403:5493   */\n      swap2\n      swap1\n      pop\n      jump\t// out\n        /* \"#utility.yul\":5499:5608   */\n    tag_107:\n        /* \"#utility.yul\":5580:5601   */\n      tag_200\n        /* \"#utility.yul\":5595:5600   */\n      dup2\n        /* \"#utility.yul\":5580:5601   */\n      tag_106\n      jump\t// in\n    tag_200:\n        /* \"#utility.yul\":5575:5578   */\n      dup3\n        /* \"#utility.yul\":5568:5602   */\n      mstore\n        /* \"#utility.yul\":5499:5608   */\n      pop\n      pop\n      jump\t// out\n        /* \"#utility.yul\":5614:6246   */\n    tag_39:\n        /* \"#utility.yul\":5805:5809   */\n      0x00\n        /* \"#utility.yul\":5843:5846   */\n      0x80\n        /* \"#utility.yul\":5832:5841   */\n      dup3\n        /* \"#utility.yul\":5828:5847   */\n      add\n        /* \"#utility.yul\":5820:5847   */\n      swap1\n      pop\n        /* \"#utility.yul\":5893:5902   */\n      dup2\n        /* \"#utility.yul\":5887:5891   */\n      dup2\n        /* \"#utility.yul\":5883:5903   */\n      sub\n        /* \"#utility.yul\":5879:5880   */\n      0x00\n        /* \"#utility.yul\":5868:5877   */\n      dup4\n        /* \"#utility.yul\":5864:5881   */\n      add\n        /* \"#utility.yul\":5857:5904   */\n      mstore\n        /* \"#utility.yul\":5921:5999   */\n      tag_202\n        /* \"#utility.yul\":5994:5998   */\n      dup2\n        /* \"#utility.yul\":5985:5991   */\n      dup8\n        /* \"#utility.yul\":5921:5999   */\n      tag_101\n      jump\t// in\n    tag_202:\n        /* \"#utility.yul\":5913:5999   */\n      swap1\n      pop\n        /* \"#utility.yul\":6009:6081   */\n      tag_203\n        /* \"#utility.yul\":6077:6079   */\n      0x20\n        /* \"#utility.yul\":6066:6075   */\n      dup4\n        /* \"#utility.yul\":6062:6080   */\n      add\n        /* \"#utility.yul\":6053:6059   */\n      dup7\n        /* \"#utility.yul\":6009:6081   */\n      tag_96\n      jump\t// in\n    tag_203:\n        /* \"#utility.yul\":6091:6163   */\n      tag_204\n        /* \"#utility.yul\":6159:6161   */\n      0x40\n        /* \"#utility.yul\":6148:6157   */\n      dup4\n        /* \"#utility.yul\":6144:6162   */\n      add\n        /* \"#utility.yul\":6135:6141   */\n      dup6\n        /* \"#utility.yul\":6091:6163   */\n      tag_96\n      jump\t// in\n    tag_204:\n        /* \"#utility.yul\":6173:6239   */\n      tag_205\n        /* \"#utility.yul\":6235:6237   */\n      0x60\n        /* \"#utility.yul\":6224:6233   */\n      dup4\n        /* \"#utility.yul\":6220:6238   */\n      add\n        /* \"#utility.yul\":6211:6217   */\n      dup5\n        /* \"#utility.yul\":6173:6239   */\n      tag_107\n      jump\t// in\n    tag_205:\n        /* \"#utility.yul\":5614:6246   */\n      swap6\n      swap5\n      pop\n      pop\n      pop\n      pop\n      pop\n      jump\t// out\n        /* \"#utility.yul\":6252:6349   */\n    tag_108:\n        /* \"#utility.yul\":6311:6317   */\n      0x00\n        /* \"#utility.yul\":6339:6342   */\n      dup3\n        /* \"#utility.yul\":6329:6342   */\n      swap1\n      pop\n        /* \"#utility.yul\":6252:6349   */\n      swap3\n      swap2\n      pop\n      pop\n      jump\t// out\n        /* \"#utility.yul\":6355:6535   */\n    tag_109:\n        /* \"#utility.yul\":6403:6480   */\n      0x4e487b7100000000000000000000000000000000000000000000000000000000\n        /* \"#utility.yul\":6400:6401   */\n      0x00\n        /* \"#utility.yul\":6393:6481   */\n      mstore\n        /* \"#utility.yul\":6500:6504   */\n      0x41\n        /* \"#utility.yul\":6497:6498   */\n      0x04\n        /* \"#utility.yul\":6490:6505   */\n      mstore\n        /* \"#utility.yul\":6524:6528   */\n      0x24\n        /* \"#utility.yul\":6521:6522   */\n      0x00\n        /* \"#utility.yul\":6514:6529   */\n      revert\n        /* \"#utility.yul\":6541:6721   */\n    tag_110:\n        /* \"#utility.yul\":6589:6666   */\n      0x4e487b7100000000000000000000000000000000000000000000000000000000\n        /* \"#utility.yul\":6586:6587   */\n      0x00\n        /* \"#utility.yul\":6579:6667   */\n      mstore\n        /* \"#utility.yul\":6686:6690   */\n      0x22\n        /* \"#utility.yul\":6683:6684   */\n      0x04\n        /* \"#utility.yul\":6676:6691   */\n      mstore\n        /* \"#utility.yul\":6710:6714   */\n      0x24\n        /* \"#utility.yul\":6707:6708   */\n      0x00\n        /* \"#utility.yul\":6700:6715   */\n      revert\n        /* \"#utility.yul\":6727:7047   */\n    tag_74:\n        /* \"#utility.yul\":6771:6777   */\n      0x00\n        /* \"#utility.yul\":6808:6809   */\n      0x02\n        /* \"#utility.yul\":6802:6806   */\n      dup3\n        /* \"#utility.yul\":6798:6810   */\n      div\n        /* \"#utility.yul\":6788:6810   */\n      swap1\n      pop\n        /* \"#utility.yul\":6855:6856   */\n      0x01\n        /* \"#utility.yul\":6849:6853   */\n      dup3\n        /* \"#utility.yul\":6845:6857   */\n      and\n        /* \"#utility.yul\":6876:6894   */\n      dup1\n        /* \"#utility.yul\":6866:6947   */\n      tag_210\n      jumpi\n        /* \"#utility.yul\":6932:6936   */\n      0x7f\n        /* \"#utility.yul\":6924:6930   */\n      dup3\n        /* \"#utility.yul\":6920:6937   */\n      and\n        /* \"#utility.yul\":6910:6937   */\n      swap2\n      pop\n        /* \"#utility.yul\":6866:6947   */\n    tag_210:\n        /* \"#utility.yul\":6994:6996   */\n      0x20\n        /* \"#utility.yul\":6986:6992   */\n      dup3\n        /* \"#utility.yul\":6983:6997   */\n      lt\n        /* \"#utility.yul\":6963:6981   */\n      dup2\n        /* \"#utility.yul\":6960:6998   */\n      sub\n        /* \"#utility.yul\":6957:7041   */\n      tag_211\n      jumpi\n        /* \"#utility.yul\":7013:7031   */\n      tag_212\n      tag_110\n      jump\t// in\n    tag_212:\n        /* \"#utility.yul\":6957:7041   */\n    tag_211:\n        /* \"#utility.yul\":6778:7047   */\n      pop\n        /* \"#utility.yul\":6727:7047   */\n      swap2\n      swap1\n      pop\n      jump\t// out\n        /* \"#utility.yul\":7053:7194   */\n    tag_111:\n        /* \"#utility.yul\":7102:7106   */\n      0x00\n        /* \"#utility.yul\":7125:7128   */\n      dup2\n        /* \"#utility.yul\":7117:7128   */\n      swap1\n      pop\n        /* \"#utility.yul\":7148:7151   */\n      dup2\n        /* \"#utility.yul\":7145:7146   */\n      0x00\n        /* \"#utility.yul\":7138:7152   */\n      mstore\n        /* \"#utility.yul\":7182:7186   */\n      0x20\n        /* \"#utility.yul\":7179:7180   */\n      0x00\n        /* \"#utility.yul\":7169:7187   */\n      keccak256\n        /* \"#utility.yul\":7161:7187   */\n      swap1\n      pop\n        /* \"#utility.yul\":7053:7194   */\n      swap2\n      swap1\n      pop\n      jump\t// out\n        /* \"#utility.yul\":7200:7293   */\n    tag_112:\n        /* \"#utility.yul\":7237:7243   */\n      0x00\n        /* \"#utility.yul\":7284:7286   */\n      0x20\n        /* \"#utility.yul\":7279:7281   */\n      0x1f\n        /* \"#utility.yul\":7272:7277   */\n      dup4\n        /* \"#utility.yul\":7268:7282   */\n      add\n        /* \"#utility.yul\":7264:7287   */\n      div\n        /* \"#utility.yul\":7254:7287   */\n      swap1\n      pop\n        /* \"#utility.yul\":7200:7293   */\n      swap2\n      swap1\n      pop\n      jump\t// out\n        /* \"#utility.yul\":7299:7406   */\n    tag_113:\n        /* \"#utility.yul\":7343:7351   */\n      0x00\n        /* \"#utility.yul\":7393:7398   */\n      dup3\n        /* \"#utility.yul\":7387:7391   */\n      dup3\n        /* \"#utility.yul\":7383:7399   */\n      shl\n        /* \"#utility.yul\":7362:7399   */\n      swap1\n      pop\n        /* \"#utility.yul\":7299:7406   */\n      swap3\n      swap2\n      pop\n      pop\n      jump\t// out\n        /* \"#utility.yul\":7412:7805   */\n    tag_114:\n        /* \"#utility.yul\":7481:7487   */\n      0x00\n        /* \"#utility.yul\":7531:7532   */\n      0x08\n        /* \"#utility.yul\":7519:7529   */\n      dup4\n        /* \"#utility.yul\":7515:7533   */\n      mul\n        /* \"#utility.yul\":7554:7651   */\n      tag_217\n        /* \"#utility.yul\":7584:7650   */\n      0xffffffffffffffffffffffffffffffffffffffffffffffffffffffffffffffff\n        /* \"#utility.yul\":7573:7582   */\n      dup3\n        /* \"#utility.yul\":7554:7651   */\n      tag_113\n      jump\t// in\n    tag_217:\n        /* \"#utility.yul\":7672:7711   */\n      tag_218\n        /* \"#utility.yul\":7702:7710   */\n      dup7\n        /* \"#utility.yul\":7691:7700   */\n      dup4\n        /* \"#utility.yul\":7672:7711   */\n      tag_113\n      jump\t// in\n    tag_218:\n        /* \"#utility.yul\":7660:7711   */\n      swap6\n      pop\n        /* \"#utility.yul\":7744:7748   */\n      dup1\n        /* \"#utility.yul\":7740:7749   */\n      not\n        /* \"#utility.yul\":7733:7738   */\n      dup5\n        /* \"#utility.yul\":7729:7750   */\n      and\n        /* \"#utility.yul\":7720:7750   */\n      swap4\n      pop\n        /* \"#utility.yul\":7793:7797   */\n      dup1\n        /* \"#utility.yul\":7783:7791   */\n      dup7\n        /* \"#utility.yul\":7779:7798   */\n      and\n        /* \"#utility.yul\":7772:7777   */\n      dup5\n        /* \"#utility.yul\":7769:7799   */\n      or\n        /* \"#utility.yul\":7759:7799   */\n      swap3\n      pop\n        /* \"#utility.yul\":7488:7805   */\n      pop\n      pop\n        /* \"#utility.yul\":7412:7805   */\n      swap4\n      swap3\n      pop\n      pop\n      pop\n      jump\t// out\n        /* \"#utility.yul\":7811:7871   */\n    tag_115:\n        /* \"#utility.yul\":7839:7842   */\n      0x00\n        /* \"#utility.yul\":7860:7865   */\n      dup2\n        /* \"#utility.yul\":7853:7865   */\n      swap1\n      pop\n        /* \"#utility.yul\":7811:7871   */\n      swap2\n      swap1\n      pop\n      jump\t// out\n        /* \"#utility.yul\":7877:8019   */\n    tag_116:\n        /* \"#utility.yul\":7927:7936   */\n      0x00\n        /* \"#utility.yul\":7960:8013   */\n      tag_221\n        /* \"#utility.yul\":7978:8012   */\n      tag_222\n        /* \"#utility.yul\":7987:8011   */\n      tag_223\n        /* \"#utility.yul\":8005:8010   */\n      dup5\n        /* \"#utility.yul\":7987:8011   */\n      tag_93\n      jump\t// in\n    tag_223:\n        /* \"#utility.yul\":7978:8012   */\n      tag_115\n      jump\t// in\n    tag_222:\n        /* \"#utility.yul\":7960:8013   */\n      tag_93\n      jump\t// in\n    tag_221:\n        /* \"#utility.yul\":7947:8013   */\n      swap1\n      pop\n        /* \"#utility.yul\":7877:8019   */\n      swap2\n      swap1\n      pop\n      jump\t// out\n        /* \"#utility.yul\":8025:8100   */\n    tag_117:\n        /* \"#utility.yul\":8068:8071   */\n      0x00\n        /* \"#utility.yul\":8089:8094   */\n      dup2\n        /* \"#utility.yul\":8082:8094   */\n      swap1\n      pop\n        /* \"#utility.yul\":8025:8100   */\n      swap2\n      swap1\n      pop\n      jump\t// out\n        /* \"#utility.yul\":8106:8375   */\n    tag_118:\n        /* \"#utility.yul\":8216:8255   */\n      tag_226\n        /* \"#utility.yul\":8247:8254   */\n      dup4\n        /* \"#utility.yul\":8216:8255   */\n      tag_116\n      jump\t// in\n    tag_226:\n        /* \"#utility.yul\":8277:8368   */\n      tag_227\n        /* \"#utility.yul\":8326:8367   */\n      tag_228\n        /* \"#utility.yul\":8350:8366   */\n      dup3\n        /* \"#utility.yul\":8326:8367   */\n      tag_117\n      jump\t// in\n    tag_228:\n        /* \"#utility.yul\":8318:8324   */\n      dup5\n        /* \"#utility.yul\":8311:8315   */\n      dup5\n        /* \"#utility.yul\":8305:8316   */\n      sload\n        /* \"#utility.yul\":8277:8368   */\n      tag_114\n      jump\t// in\n    tag_227:\n        /* \"#utility.yul\":8271:8275   */\n      dup3\n        /* \"#utility.yul\":8264:8369   */\n      sstore\n        /* \"#utility.yul\":8182:8375   */\n      pop\n        /* \"#utility.yul\":8106:8375   */\n      pop\n      pop\n      pop\n      jump\t// out\n        /* \"#utility.yul\":8381:8454   */\n    tag_119:\n        /* \"#utility.yul\":8426:8429   */\n      0x00\n        /* \"#utility.yul\":8381:8454   */\n      swap1\n      jump\t// out\n        /* \"#utility.yul\":8460:8649   */\n    tag_120:\n        /* \"#utility.yul\":8537:8569   */\n      tag_231\n      tag_119\n      jump\t// in\n    tag_231:\n        /* \"#utility.yul\":8578:8643   */\n      tag_232\n        /* \"#utility.yul\":8636:8642   */\n      dup2\n        /* \"#utility.yul\":8628:8634   */\n      dup5\n        /* \"#utility.yul\":8622:8626   */\n      dup5\n        /* \"#utility.yul\":8578:8643   */\n      tag_118\n      jump\t// in\n    tag_232:\n        /* \"#utility.yul\":8513:8649   */\n      pop\n        /* \"#utility.yul\":8460:8649   */\n      pop\n      pop\n      jump\t// out\n        /* \"#utility.yul\":8655:8841   */\n    tag_121:\n        /* \"#utility.yul\":8715:8835   */\n    tag_234:\n        /* \"#utility.yul\":8732:8735   */\n      dup2\n        /* \"#utility.yul\":8725:8730   */\n      dup2\n        /* \"#utility.yul\":8722:8736   */\n      lt\n        /* \"#utility.yul\":8715:8835   */\n      iszero\n      tag_236\n      jumpi\n        /* \"#utility.yul\":8786:8825   */\n      tag_237\n        /* \"#utility.yul\":8823:8824   */\n      0x00\n        /* \"#utility.yul\":8816:8821   */\n      dup3\n        /* \"#utility.yul\":8786:8825   */\n      tag_120\n      jump\t// in\n    tag_237:\n        /* \"#utility.yul\":8759:8760   */\n      0x01\n        /* \"#utility.yul\":8752:8757   */\n      dup2\n        /* \"#utility.yul\":8748:8761   */\n      add\n        /* \"#utility.yul\":8739:8761   */\n      swap1\n      pop\n        /* \"#utility.yul\":8715:8835   */\n      jump(tag_234)\n    tag_236:\n        /* \"#utility.yul\":8655:8841   */\n      pop\n      pop\n      jump\t// out\n        /* \"#utility.yul\":8847:9390   */\n    tag_122:\n        /* \"#utility.yul\":8948:8950   */\n      0x1f\n        /* \"#utility.yul\":8943:8946   */\n      dup3\n        /* \"#utility.yul\":8940:8951   */\n      gt\n        /* \"#utility.yul\":8937:9383   */\n      iszero\n      tag_239\n      jumpi\n        /* \"#utility.yul\":8982:9020   */\n      tag_240\n        /* \"#utility.yul\":9014:9019   */\n      dup2\n        /* \"#utility.yul\":8982:9020   */\n      tag_111\n      jump\t// in\n    tag_240:\n        /* \"#utility.yul\":9066:9095   */\n      tag_241\n        /* \"#utility.yul\":9084:9094   */\n      dup5\n        /* \"#utility.yul\":9066:9095   */\n      tag_112\n      jump\t// in\n    tag_241:\n        /* \"#utility.yul\":9056:9064   */\n      dup2\n        /* \"#utility.yul\":9052:9096   */\n      add\n        /* \"#utility.yul\":9249:9251   */\n      0x20\n        /* \"#utility.yul\":9237:9247   */\n      dup6\n        /* \"#utility.yul\":9234:9252   */\n      lt\n        /* \"#utility.yul\":9231:9280   */\n      iszero\n      tag_242\n      jumpi\n        /* \"#utility.yul\":9270:9278   */\n      dup2\n        /* \"#utility.yul\":9255:9278   */\n      swap1\n      pop\n        /* \"#utility.yul\":9231:9280   */\n    tag_242:\n        /* \"#utility.yul\":9293:9373   */\n      tag_243\n        /* \"#utility.yul\":9349:9371   */\n      tag_244\n        /* \"#utility.yul\":9367:9370   */\n      dup6\n        /* \"#utility.yul\":9349:9371   */\n      tag_112\n      jump\t// in\n    tag_244:\n        /* \"#utility.yul\":9339:9347   */\n      dup4\n        /* \"#utility.yul\":9335:9372   */\n      add\n        /* \"#utility.yul\":9322:9333   */\n      dup3\n        /* \"#utility.yul\":9293:9373   */\n      tag_121\n      jump\t// in\n    tag_243:\n        /* \"#utility.yul\":8952:9383   */\n      pop\n      pop\n        /* \"#utility.yul\":8937:9383   */\n    tag_239:\n        /* \"#utility.yul\":8847:9390   */\n      pop\n      pop\n      pop\n      jump\t// out\n        /* \"#utility.yul\":9396:9513   */\n    tag_123:\n        /* \"#utility.yul\":9450:9458   */\n      0x00\n        /* \"#utility.yul\":9500:9505   */\n      dup3\n        /* \"#utility.yul\":9494:9498   */\n      dup3\n        /* \"#utility.yul\":9490:9506   */\n      shr\n        /* \"#utility.yul\":9469:9506   */\n      swap1\n      pop\n        /* \"#utility.yul\":9396:9513   */\n      swap3\n      swap2\n      pop\n      pop\n      jump\t// out\n        /* \"#utility.yul\":9519:9688   */\n    tag_124:\n        /* \"#utility.yul\":9563:9569   */\n      0x00\n        /* \"#utility.yul\":9596:9647   */\n      tag_247\n        /* \"#utility.yul\":9644:9645   */\n      0x00\n        /* \"#utility.yul\":9640:9646   */\n      not\n        /* \"#utility.yul\":9632:9637   */\n      dup5\n        /* \"#utility.yul\":9629:9630   */\n      0x08\n        /* \"#utility.yul\":9625:9638   */\n      mul\n        /* \"#utility.yul\":9596:9647   */\n      tag_123\n      jump\t// in\n    tag_247:\n        /* \"#utility.yul\":9592:9648   */\n      not\n        /* \"#utility.yul\":9677:9681   */\n      dup1\n        /* \"#utility.yul\":9671:9675   */\n      dup4\n        /* \"#utility.yul\":9667:9682   */\n      and\n        /* \"#utility.yul\":9657:9682   */\n      swap2\n      pop\n        /* \"#utility.yul\":9570:9688   */\n      pop\n        /* \"#utility.yul\":9519:9688   */\n      swap3\n      swap2\n      pop\n      pop\n      jump\t// out\n        /* \"#utility.yul\":9693:9988   */\n    tag_125:\n        /* \"#utility.yul\":9769:9773   */\n      0x00\n        /* \"#utility.yul\":9915:9944   */\n      tag_249\n        /* \"#utility.yul\":9940:9943   */\n      dup4\n        /* \"#utility.yul\":9934:9938   */\n      dup4\n        /* \"#utility.yul\":9915:9944   */\n      tag_124\n      jump\t// in\n    tag_249:\n        /* \"#utility.yul\":9907:9944   */\n      swap2\n      pop\n        /* \"#utility.yul\":9977:9980   */\n      dup3\n        /* \"#utility.yul\":9974:9975   */\n      0x02\n        /* \"#utility.yul\":9970:9981   */\n      mul\n        /* \"#utility.yul\":9964:9968   */\n      dup3\n        /* \"#utility.yul\":9961:9982   */\n      or\n        /* \"#utility.yul\":9953:9982   */\n      swap1\n      pop\n        /* \"#utility.yul\":9693:9988   */\n      swap3\n      swap2\n      pop\n      pop\n      jump\t// out\n        /* \"#utility.yul\":9993:11396   */\n    tag_44:\n        /* \"#utility.yul\":10117:10161   */\n      tag_251\n        /* \"#utility.yul\":10157:10160   */\n      dup4\n        /* \"#utility.yul\":10152:10155   */\n      dup4\n        /* \"#utility.yul\":10117:10161   */\n      tag_108\n      jump\t// in\n    tag_251:\n        /* \"#utility.yul\":10226:10244   */\n      0xffffffffffffffff\n        /* \"#utility.yul\":10218:10224   */\n      dup2\n        /* \"#utility.yul\":10215:10245   */\n      gt\n        /* \"#utility.yul\":10212:10268   */\n      iszero\n      tag_252\n      jumpi\n        /* \"#utility.yul\":10248:10266   */\n      tag_253\n      tag_109\n      jump\t// in\n    tag_253:\n        /* \"#utility.yul\":10212:10268   */\n    tag_252:\n        /* \"#utility.yul\":10292:10330   */\n      tag_254\n        /* \"#utility.yul\":10324:10328   */\n      dup3\n        /* \"#utility.yul\":10318:10329   */\n      sload\n        /* \"#utility.yul\":10292:10330   */\n      tag_74\n      jump\t// in\n    tag_254:\n        /* \"#utility.yul\":10377:10444   */\n      tag_255\n        /* \"#utility.yul\":10437:10443   */\n      dup3\n        /* \"#utility.yul\":10429:10435   */\n      dup3\n        /* \"#utility.yul\":10423:10427   */\n      dup6\n        /* \"#utility.yul\":10377:10444   */\n      tag_122\n      jump\t// in\n    tag_255:\n        /* \"#utility.yul\":10471:10472   */\n      0x00\n        /* \"#utility.yul\":10500:10502   */\n      0x1f\n        /* \"#utility.yul\":10492:10498   */\n      dup4\n        /* \"#utility.yul\":10489:10503   */\n      gt\n        /* \"#utility.yul\":10517:10518   */\n      0x01\n        /* \"#utility.yul\":10512:11144   */\n      dup2\n      eq\n      tag_257\n      jumpi\n        /* \"#utility.yul\":11188:11189   */\n      0x00\n        /* \"#utility.yul\":11205:11211   */\n      dup5\n        /* \"#utility.yul\":11202:11286   */\n      iszero\n      tag_258\n      jumpi\n        /* \"#utility.yul\":11261:11270   */\n      dup3\n        /* \"#utility.yul\":11256:11259   */\n      dup8\n        /* \"#utility.yul\":11252:11271   */\n      add\n        /* \"#utility.yul\":11239:11272   */\n      calldataload\n        /* \"#utility.yul\":11230:11272   */\n      swap1\n      pop\n        /* \"#utility.yul\":11202:11286   */\n    tag_258:\n        /* \"#utility.yul\":11312:11379   */\n      tag_259\n        /* \"#utility.yul\":11372:11378   */\n      dup6\n        /* \"#utility.yul\":11365:11370   */\n      dup3\n        /* \"#utility.yul\":11312:11379   */\n      tag_125\n      jump\t// in\n    tag_259:\n        /* \"#utility.yul\":11306:11310   */\n      dup7\n        /* \"#utility.yul\":11299:11380   */\n      sstore\n        /* \"#utility.yul\":11161:11390   */\n      pop\n        /* \"#utility.yul\":10482:11390   */\n      jump(tag_256)\n        /* \"#utility.yul\":10512:11144   */\n    tag_257:\n        /* \"#utility.yul\":10564:10568   */\n      0x1f\n        /* \"#utility.yul\":10560:10569   */\n      not\n        /* \"#utility.yul\":10552:10558   */\n      dup5\n        /* \"#utility.yul\":10548:10570   */\n      and\n        /* \"#utility.yul\":10598:10635   */\n      tag_260\n        /* \"#utility.yul\":10630:10634   */\n      dup7\n        /* \"#utility.yul\":10598:10635   */\n      tag_111\n      jump\t// in\n    tag_260:\n        /* \"#utility.yul\":10657:10658   */\n      0x00\n        /* \"#utility.yul\":10671:10886   */\n    tag_261:\n        /* \"#utility.yul\":10685:10692   */\n      dup3\n        /* \"#utility.yul\":10682:10683   */\n      dup2\n        /* \"#utility.yul\":10679:10693   */\n      lt\n        /* \"#utility.yul\":10671:10886   */\n      iszero\n      tag_263\n      jumpi\n        /* \"#utility.yul\":10771:10780   */\n      dup5\n        /* \"#utility.yul\":10766:10769   */\n      dup10\n        /* \"#utility.yul\":10762:10781   */\n      add\n        /* \"#utility.yul\":10749:10782   */\n      calldataload\n        /* \"#utility.yul\":10741:10747   */\n      dup3\n        /* \"#utility.yul\":10734:10783   */\n      sstore\n        /* \"#utility.yul\":10822:10823   */\n      0x01\n        /* \"#utility.yul\":10814:10820   */\n      dup3\n        /* \"#utility.yul\":10810:10824   */\n      add\n        /* \"#utility.yul\":10800:10824   */\n      swap2\n      pop\n        /* \"#utility.yul\":10869:10871   */\n      0x20\n        /* \"#utility.yul\":10858:10867   */\n      dup6\n        /* \"#utility.yul\":10854:10872   */\n      add\n        /* \"#utility.yul\":10841:10872   */\n      swap5\n      pop\n        /* \"#utility.yul\":10708:10712   */\n      0x20\n        /* \"#utility.yul\":10705:10706   */\n      dup2\n        /* \"#utility.yul\":10701:10713   */\n      add\n        /* \"#utility.yul\":10696:10713   */\n      swap1\n      pop\n        /* \"#utility.yul\":10671:10886   */\n      jump(tag_261)\n    tag_263:\n        /* \"#utility.yul\":10914:10920   */\n      dup7\n        /* \"#utility.yul\":10905:10912   */\n      dup4\n        /* \"#utility.yul\":10902:10921   */\n      lt\n        /* \"#utility.yul\":10899:11085   */\n      iszero\n      tag_264\n      jumpi\n        /* \"#utility.yul\":10979:10988   */\n      dup5\n        /* \"#utility.yul\":10974:10977   */\n      dup10\n        /* \"#utility.yul\":10970:10989   */\n      add\n        /* \"#utility.yul\":10957:10990   */\n      calldataload\n        /* \"#utility.yul\":11022:11070   */\n      tag_265\n        /* \"#utility.yul\":11064:11068   */\n      0x1f\n        /* \"#utility.yul\":11056:11062   */\n      dup10\n        /* \"#utility.yul\":11052:11069   */\n      and\n        /* \"#utility.yul\":11041:11050   */\n      dup3\n        /* \"#utility.yul\":11022:11070   */\n      tag_124\n      jump\t// in\n    tag_265:\n        /* \"#utility.yul\":11014:11020   */\n      dup4\n        /* \"#utility.yul\":11007:11071   */\n      sstore\n        /* \"#utility.yul\":10922:11085   */\n      pop\n        /* \"#utility.yul\":10899:11085   */\n    tag_264:\n        /* \"#utility.yul\":11131:11132   */\n      0x01\n        /* \"#utility.yul\":11127:11128   */\n      0x02\n        /* \"#utility.yul\":11119:11125   */\n      dup9\n        /* \"#utility.yul\":11115:11129   */\n      mul\n        /* \"#utility.yul\":11111:11133   */\n      add\n        /* \"#utility.yul\":11105:11109   */\n      dup9\n        /* \"#utility.yul\":11098:11134   */\n      sstore\n        /* \"#utility.yul\":10519:11144   */\n      pop\n      pop\n      pop\n        /* \"#utility.yul\":10482:11390   */\n    tag_256:\n      pop\n        /* \"#utility.yul\":10092:11396   */\n      pop\n      pop\n      pop\n        /* \"#utility.yul\":9993:11396   */\n      pop\n      pop\n      pop\n      jump\t// out\n        /* \"#utility.yul\":11402:11631   */\n    tag_126:\n        /* \"#utility.yul\":11542:11576   */\n      0x4f6e6c792074686520636f6e7472616374206f776e65722063616e2077697468\n        /* \"#utility.yul\":11538:11539   */\n      0x00\n        /* \"#utility.yul\":11530:11536   */\n      dup3\n        /* \"#utility.yul\":11526:11540   */\n      add\n        /* \"#utility.yul\":11519:11577   */\n      mstore\n        /* \"#utility.yul\":11611:11623   */\n      0x647261772066756e647300000000000000000000000000000000000000000000\n        /* \"#utility.yul\":11606:11608   */\n      0x20\n        /* \"#utility.yul\":11598:11604   */\n      dup3\n        /* \"#utility.yul\":11594:11609   */\n      add\n        /* \"#utility.yul\":11587:11624   */\n      mstore\n        /* \"#utility.yul\":11402:11631   */\n      pop\n      jump\t// out\n        /* \"#utility.yul\":11637:12003   */\n    tag_127:\n        /* \"#utility.yul\":11779:11782   */\n      0x00\n        /* \"#utility.yul\":11800:11867   */\n      tag_268\n        /* \"#utility.yul\":11864:11866   */\n      0x2a\n        /* \"#utility.yul\":11859:11862   */\n      dup4\n        /* \"#utility.yul\":11800:11867   */\n      tag_98\n      jump\t// in\n    tag_268:\n        /* \"#utility.yul\":11793:11867   */\n      swap2\n      pop\n        /* \"#utility.yul\":11876:11969   */\n      tag_269\n        /* \"#utility.yul\":11965:11968   */\n      dup3\n        /* \"#utility.yul\":11876:11969   */\n      tag_126\n      jump\t// in\n    tag_269:\n        /* \"#utility.yul\":11994:11996   */\n      0x40\n        /* \"#utility.yul\":11989:11992   */\n      dup3\n        /* \"#utility.yul\":11985:11997   */\n      add\n        /* \"#utility.yul\":11978:11997   */\n      swap1\n      pop\n        /* \"#utility.yul\":11637:12003   */\n      swap2\n      swap1\n      pop\n      jump\t// out\n        /* \"#utility.yul\":12009:12428   */\n    tag_48:\n        /* \"#utility.yul\":12175:12179   */\n      0x00\n        /* \"#utility.yul\":12213:12215   */\n      0x20\n        /* \"#utility.yul\":12202:12211   */\n      dup3\n        /* \"#utility.yul\":12198:12216   */\n      add\n        /* \"#utility.yul\":12190:12216   */\n      swap1\n      pop\n        /* \"#utility.yul\":12262:12271   */\n      dup2\n        /* \"#utility.yul\":12256:12260   */\n      dup2\n        /* \"#utility.yul\":12252:12272   */\n      sub\n        /* \"#utility.yul\":12248:12249   */\n      0x00\n        /* \"#utility.yul\":12237:12246   */\n      dup4\n        /* \"#utility.yul\":12233:12250   */\n      add\n        /* \"#utility.yul\":12226:12273   */\n      mstore\n        /* \"#utility.yul\":12290:12421   */\n      tag_271\n        /* \"#utility.yul\":12416:12420   */\n      dup2\n        /* \"#utility.yul\":12290:12421   */\n      tag_127\n      jump\t// in\n    tag_271:\n        /* \"#utility.yul\":12282:12421   */\n      swap1\n      pop\n        /* \"#utility.yul\":12009:12428   */\n      swap2\n      swap1\n      pop\n      jump\t// out\n        /* \"#utility.yul\":12434:12604   */\n    tag_128:\n        /* \"#utility.yul\":12574:12596   */\n      0x496e73756666696369656e742062616c616e6365000000000000000000000000\n        /* \"#utility.yul\":12570:12571   */\n      0x00\n        /* \"#utility.yul\":12562:12568   */\n      dup3\n        /* \"#utility.yul\":12558:12572   */\n      add\n        /* \"#utility.yul\":12551:12597   */\n      mstore\n        /* \"#utility.yul\":12434:12604   */\n      pop\n      jump\t// out\n        /* \"#utility.yul\":12610:12976   */\n    tag_129:\n        /* \"#utility.yul\":12752:12755   */\n      0x00\n        /* \"#utility.yul\":12773:12840   */\n      tag_274\n        /* \"#utility.yul\":12837:12839   */\n      0x14\n        /* \"#utility.yul\":12832:12835   */\n      dup4\n        /* \"#utility.yul\":12773:12840   */\n      tag_98\n      jump\t// in\n    tag_274:\n        /* \"#utility.yul\":12766:12840   */\n      swap2\n      pop\n        /* \"#utility.yul\":12849:12942   */\n      tag_275\n        /* \"#utility.yul\":12938:12941   */\n      dup3\n        /* \"#utility.yul\":12849:12942   */\n      tag_128\n      jump\t// in\n    tag_275:\n        /* \"#utility.yul\":12967:12969   */\n      0x20\n        /* \"#utility.yul\":12962:12965   */\n      dup3\n        /* \"#utility.yul\":12958:12970   */\n      add\n        /* \"#utility.yul\":12951:12970   */\n      swap1\n      pop\n        /* \"#utility.yul\":12610:12976   */\n      swap2\n      swap1\n      pop\n      jump\t// out\n        /* \"#utility.yul\":12982:13401   */\n    tag_56:\n        /* \"#utility.yul\":13148:13152   */\n      0x00\n        /* \"#utility.yul\":13186:13188   */\n      0x20\n        /* \"#utility.yul\":13175:13184   */\n      dup3\n        /* \"#utility.yul\":13171:13189   */\n      add\n        /* \"#utility.yul\":13163:13189   */\n      swap1\n      pop\n        /* \"#utility.yul\":13235:13244   */\n      dup2\n        /* \"#utility.yul\":13229:13233   */\n      dup2\n        /* \"#utility.yul\":13225:13245   */\n      sub\n        /* \"#utility.yul\":13221:13222   */\n      0x00\n        /* \"#utility.yul\":13210:13219   */\n      dup4\n        /* \"#utility.yul\":13206:13223   */\n      add\n        /* \"#utility.yul\":13199:13246   */\n      mstore\n        /* \"#utility.yul\":13263:13394   */\n      tag_277\n        /* \"#utility.yul\":13389:13393   */\n      dup2\n        /* \"#utility.yul\":13263:13394   */\n      tag_129\n      jump\t// in\n    tag_277:\n        /* \"#utility.yul\":13255:13394   */\n      swap1\n      pop\n        /* \"#utility.yul\":12982:13401   */\n      swap2\n      swap1\n      pop\n      jump\t// out\n        /* \"#utility.yul\":13407:13644   */\n    tag_130:\n        /* \"#utility.yul\":13547:13581   */\n      0x55736572206d7573742068617665206465706f7369746564206265666f726520\n        /* \"#utility.yul\":13543:13544   */\n      0x00\n        /* \"#utility.yul\":13535:13541   */\n      dup3\n        /* \"#utility.yul\":13531:13545   */\n      add\n        /* \"#utility.yul\":13524:13582   */\n      mstore\n        /* \"#utility.yul\":13616:13636   */\n      0x696e6372656173696e672062616c616e63650000000000000000000000000000\n        /* \"#utility.yul\":13611:13613   */\n      0x20\n        /* \"#utility.yul\":13603:13609   */\n      dup3\n        /* \"#utility.yul\":13599:13614   */\n      add\n        /* \"#utility.yul\":13592:13637   */\n      mstore\n        /* \"#utility.yul\":13407:13644   */\n      pop\n      jump\t// out\n        /* \"#utility.yul\":13650:14016   */\n    tag_131:\n        /* \"#utility.yul\":13792:13795   */\n      0x00\n        /* \"#utility.yul\":13813:13880   */\n      tag_280\n        /* \"#utility.yul\":13877:13879   */\n      0x32\n        /* \"#utility.yul\":13872:13875   */\n      dup4\n        /* \"#utility.yul\":13813:13880   */\n      tag_98\n      jump\t// in\n    tag_280:\n        /* \"#utility.yul\":13806:13880   */\n      swap2\n      pop\n        /* \"#utility.yul\":13889:13982   */\n      tag_281\n        /* \"#utility.yul\":13978:13981   */\n      dup3\n        /* \"#utility.yul\":13889:13982   */\n      tag_130\n      jump\t// in\n    tag_281:\n        /* \"#utility.yul\":14007:14009   */\n      0x40\n        /* \"#utility.yul\":14002:14005   */\n      dup3\n        /* \"#utility.yul\":13998:14010   */\n      add\n        /* \"#utility.yul\":13991:14010   */\n      swap1\n      pop\n        /* \"#utility.yul\":13650:14016   */\n      swap2\n      swap1\n      pop\n      jump\t// out\n        /* \"#utility.yul\":14022:14441   */\n    tag_62:\n        /* \"#utility.yul\":14188:14192   */\n      0x00\n        /* \"#utility.yul\":14226:14228   */\n      0x20\n        /* \"#utility.yul\":14215:14224   */\n      dup3\n        /* \"#utility.yul\":14211:14229   */\n      add\n        /* \"#utility.yul\":14203:14229   */\n      swap1\n      pop\n        /* \"#utility.yul\":14275:14284   */\n      dup2\n        /* \"#utility.yul\":14269:14273   */\n      dup2\n        /* \"#utility.yul\":14265:14285   */\n      sub\n        /* \"#utility.yul\":14261:14262   */\n      0x00\n        /* \"#utility.yul\":14250:14259   */\n      dup4\n        /* \"#utility.yul\":14246:14263   */\n      add\n        /* \"#utility.yul\":14239:14286   */\n      mstore\n        /* \"#utility.yul\":14303:14434   */\n      tag_283\n        /* \"#utility.yul\":14429:14433   */\n      dup2\n        /* \"#utility.yul\":14303:14434   */\n      tag_131\n      jump\t// in\n    tag_283:\n        /* \"#utility.yul\":14295:14434   */\n      swap1\n      pop\n        /* \"#utility.yul\":14022:14441   */\n      swap2\n      swap1\n      pop\n      jump\t// out\n        /* \"#utility.yul\":14447:14628   */\n    tag_132:\n        /* \"#utility.yul\":14587:14620   */\n      0x416d6f756e74206d7573742062652067726561746572207468616e2066656500\n        /* \"#utility.yul\":14583:14584   */\n      0x00\n        /* \"#utility.yul\":14575:14581   */\n      dup3\n        /* \"#utility.yul\":14571:14585   */\n      add\n        /* \"#utility.yul\":14564:14621   */\n      mstore\n        /* \"#utility.yul\":14447:14628   */\n      pop\n      jump\t// out\n        /* \"#utility.yul\":14634:15000   */\n    tag_133:\n        /* \"#utility.yul\":14776:14779   */\n      0x00\n        /* \"#utility.yul\":14797:14864   */\n      tag_286\n        /* \"#utility.yul\":14861:14863   */\n      0x1f\n        /* \"#utility.yul\":14856:14859   */\n      dup4\n        /* \"#utility.yul\":14797:14864   */\n      tag_98\n      jump\t// in\n    tag_286:\n        /* \"#utility.yul\":14790:14864   */\n      swap2\n      pop\n        /* \"#utility.yul\":14873:14966   */\n      tag_287\n        /* \"#utility.yul\":14962:14965   */\n      dup3\n        /* \"#utility.yul\":14873:14966   */\n      tag_132\n      jump\t// in\n    tag_287:\n        /* \"#utility.yul\":14991:14993   */\n      0x20\n        /* \"#utility.yul\":14986:14989   */\n      dup3\n        /* \"#utility.yul\":14982:14994   */\n      add\n        /* \"#utility.yul\":14975:14994   */\n      swap1\n      pop\n        /* \"#utility.yul\":14634:15000   */\n      swap2\n      swap1\n      pop\n      jump\t// out\n        /* \"#utility.yul\":15006:15425   */\n    tag_66:\n        /* \"#utility.yul\":15172:15176   */\n      0x00\n        /* \"#utility.yul\":15210:15212   */\n      0x20\n        /* \"#utility.yul\":15199:15208   */\n      dup3\n        /* \"#utility.yul\":15195:15213   */\n      add\n        /* \"#utility.yul\":15187:15213   */\n      swap1\n      pop\n        /* \"#utility.yul\":15259:15268   */\n      dup2\n        /* \"#utility.yul\":15253:15257   */\n      dup2\n        /* \"#utility.yul\":15249:15269   */\n      sub\n        /* \"#utility.yul\":15245:15246   */\n      0x00\n        /* \"#utility.yul\":15234:15243   */\n      dup4\n        /* \"#utility.yul\":15230:15247   */\n      add\n        /* \"#utility.yul\":15223:15270   */\n      mstore\n        /* \"#utility.yul\":15287:15418   */\n      tag_289\n        /* \"#utility.yul\":15413:15417   */\n      dup2\n        /* \"#utility.yul\":15287:15418   */\n      tag_133\n      jump\t// in\n    tag_289:\n        /* \"#utility.yul\":15279:15418   */\n      swap1\n      pop\n        /* \"#utility.yul\":15006:15425   */\n      swap2\n      swap1\n      pop\n      jump\t// out\n        /* \"#utility.yul\":15431:15611   */\n    tag_134:\n        /* \"#utility.yul\":15479:15556   */\n      0x4e487b7100000000000000000000000000000000000000000000000000000000\n        /* \"#utility.yul\":15476:15477   */\n      0x00\n        /* \"#utility.yul\":15469:15557   */\n      mstore\n        /* \"#utility.yul\":15576:15580   */\n      0x11\n        /* \"#utility.yul\":15573:15574   */\n      0x04\n        /* \"#utility.yul\":15566:15581   */\n      mstore\n        /* \"#utility.yul\":15600:15604   */\n      0x24\n        /* \"#utility.yul\":15597:15598   */\n      0x00\n        /* \"#utility.yul\":15590:15605   */\n      revert\n        /* \"#utility.yul\":15617:15811   */\n    tag_69:\n        /* \"#utility.yul\":15657:15661   */\n      0x00\n        /* \"#utility.yul\":15677:15697   */\n      tag_292\n        /* \"#utility.yul\":15695:15696   */\n      dup3\n        /* \"#utility.yul\":15677:15697   */\n      tag_93\n      jump\t// in\n    tag_292:\n        /* \"#utility.yul\":15672:15697   */\n      swap2\n      pop\n        /* \"#utility.yul\":15711:15731   */\n      tag_293\n        /* \"#utility.yul\":15729:15730   */\n      dup4\n        /* \"#utility.yul\":15711:15731   */\n      tag_93\n      jump\t// in\n    tag_293:\n        /* \"#utility.yul\":15706:15731   */\n      swap3\n      pop\n        /* \"#utility.yul\":15755:15756   */\n      dup3\n        /* \"#utility.yul\":15752:15753   */\n      dup3\n        /* \"#utility.yul\":15748:15757   */\n      sub\n        /* \"#utility.yul\":15740:15757   */\n      swap1\n      pop\n        /* \"#utility.yul\":15779:15780   */\n      dup2\n        /* \"#utility.yul\":15773:15777   */\n      dup2\n        /* \"#utility.yul\":15770:15781   */\n      gt\n        /* \"#utility.yul\":15767:15804   */\n      iszero\n      tag_294\n      jumpi\n        /* \"#utility.yul\":15784:15802   */\n      tag_295\n      tag_134\n      jump\t// in\n    tag_295:\n        /* \"#utility.yul\":15767:15804   */\n    tag_294:\n        /* \"#utility.yul\":15617:15811   */\n      swap3\n      swap2\n      pop\n      pop\n      jump\t// out\n        /* \"#utility.yul\":15817:16008   */\n    tag_71:\n        /* \"#utility.yul\":15857:15860   */\n      0x00\n        /* \"#utility.yul\":15876:15896   */\n      tag_297\n        /* \"#utility.yul\":15894:15895   */\n      dup3\n        /* \"#utility.yul\":15876:15896   */\n      tag_93\n      jump\t// in\n    tag_297:\n        /* \"#utility.yul\":15871:15896   */\n      swap2\n      pop\n        /* \"#utility.yul\":15910:15930   */\n      tag_298\n        /* \"#utility.yul\":15928:15929   */\n      dup4\n        /* \"#utility.yul\":15910:15930   */\n      tag_93\n      jump\t// in\n    tag_298:\n        /* \"#utility.yul\":15905:15930   */\n      swap3\n      pop\n        /* \"#utility.yul\":15953:15954   */\n      dup3\n        /* \"#utility.yul\":15950:15951   */\n      dup3\n        /* \"#utility.yul\":15946:15955   */\n      add\n        /* \"#utility.yul\":15939:15955   */\n      swap1\n      pop\n        /* \"#utility.yul\":15974:15977   */\n      dup1\n        /* \"#utility.yul\":15971:15972   */\n      dup3\n        /* \"#utility.yul\":15968:15978   */\n      gt\n        /* \"#utility.yul\":15965:16001   */\n      iszero\n      tag_299\n      jumpi\n        /* \"#utility.yul\":15981:15999   */\n      tag_300\n      tag_134\n      jump\t// in\n    tag_300:\n        /* \"#utility.yul\":15965:16001   */\n    tag_299:\n        /* \"#utility.yul\":15817:16008   */\n      swap3\n      swap2\n      pop\n      pop\n      jump\t// out\n\n    auxdata: 0xa2646970667358221220183451a60bd5e9c95da9d5fc21c2fccab4b5442e67bfb1b7588dbefe94d7617364736f6c63430008120033\n}\n",
				"bytecode": {
					"linkReferences": {},
					"object": "608060405234801561001057600080fd5b5033600160006101000a81548173ffffffffffffffffffffffffffffffffffffffff021916908373ffffffffffffffffffffffffffffffffffffffff1602179055506110d4806100616000396000f3fe6080604052600436106100705760003560e01c8063346c96e91161004e578063346c96e9146100f2578063942886be1461010e578063a87430ba1461013b578063d0e30db01461017b57610070565b806308f6f76e1461007557806312065fe01461009e5780632e1a7d4d146100c9575b600080fd5b34801561008157600080fd5b5061009c6004803603810190610097919061087e565b610185565b005b3480156100aa57600080fd5b506100b3610221565b6040516100c091906108ed565b60405180910390f35b3480156100d557600080fd5b506100f060048036038101906100eb9190610908565b6102b9565b005b61010c60048036038101906101079190610908565b6103f8565b005b34801561011a57600080fd5b50610123610532565b604051610132939291906109c5565b60405180910390f35b34801561014757600080fd5b50610162600480360381019061015d9190610a61565b610660565b6040516101729493929190610aa9565b60405180910390f35b610183610725565b005b82826000803373ffffffffffffffffffffffffffffffffffffffff1673ffffffffffffffffffffffffffffffffffffffff16815260200190815260200160002060000191826101d5929190610d3b565b50806000803373ffffffffffffffffffffffffffffffffffffffff1673ffffffffffffffffffffffffffffffffffffffff16815260200190815260200160002060010181905550505050565b6000600160009054906101000a900473ffffffffffffffffffffffffffffffffffffffff1673ffffffffffffffffffffffffffffffffffffffff163373ffffffffffffffffffffffffffffffffffffffff16146102b3576040517f08c379a00000000000000000000000000000000000000000000000000000000081526004016102aa90610e7d565b60405180910390fd5b47905090565b600160009054906101000a900473ffffffffffffffffffffffffffffffffffffffff1673ffffffffffffffffffffffffffffffffffffffff163373ffffffffffffffffffffffffffffffffffffffff1614610349576040517f08c379a000000000000000000000000000000000000000000000000000000000815260040161034090610e7d565b60405180910390fd5b8047101561038c576040517f08c379a000000000000000000000000000000000000000000000000000000000815260040161038390610ee9565b60405180910390fd5b600160009054906101000a900473ffffffffffffffffffffffffffffffffffffffff1673ffffffffffffffffffffffffffffffffffffffff166108fc829081150290604051600060405180830381858888f193505050501580156103f4573d6000803e3d6000fd5b5050565b6000803373ffffffffffffffffffffffffffffffffffffffff1673ffffffffffffffffffffffffffffffffffffffff16815260200190815260200160002060030160009054906101000a900460ff16610486576040517f08c379a000000000000000000000000000000000000000000000000000000000815260040161047d90610f7b565b60405180910390fd5b80600a81116104ca576040517f08c379a00000000000000000000000000000000000000000000000000000000081526004016104c190610fe7565b60405180910390fd5b600a826104d79190611036565b6000803373ffffffffffffffffffffffffffffffffffffffff1673ffffffffffffffffffffffffffffffffffffffff1681526020019081526020016000206002016000828254610527919061106a565b925050819055505050565b606060008060008060003373ffffffffffffffffffffffffffffffffffffffff1673ffffffffffffffffffffffffffffffffffffffff16815260200190815260200160002060405180608001604052908160008201805461059290610b5e565b80601f01602080910402602001604051908101604052809291908181526020018280546105be90610b5e565b801561060b5780601f106105e05761010080835404028352916020019161060b565b820191906000526020600020905b8154815290600101906020018083116105ee57829003601f168201915b5050505050815260200160018201548152602001600282015481526020016003820160009054906101000a900460ff161515151581525050905080600001518160200151826040015193509350935050909192565b600060205280600052604060002060009150905080600001805461068390610b5e565b80601f01602080910402602001604051908101604052809291908181526020018280546106af90610b5e565b80156106fc5780601f106106d1576101008083540402835291602001916106fc565b820191906000526020600020905b8154815290600101906020018083116106df57829003601f168201915b5050505050908060010154908060020154908060030160009054906101000a900460ff16905084565b346000803373ffffffffffffffffffffffffffffffffffffffff1673ffffffffffffffffffffffffffffffffffffffff1681526020019081526020016000206002016000828254610776919061106a565b9250508190555060016000803373ffffffffffffffffffffffffffffffffffffffff1673ffffffffffffffffffffffffffffffffffffffff16815260200190815260200160002060030160006101000a81548160ff021916908315150217905550565b600080fd5b600080fd5b600080fd5b600080fd5b600080fd5b60008083601f840112610808576108076107e3565b5b8235905067ffffffffffffffff811115610825576108246107e8565b5b602083019150836001820283011115610841576108406107ed565b5b9250929050565b6000819050919050565b61085b81610848565b811461086657600080fd5b50565b60008135905061087881610852565b92915050565b600080600060408486031215610897576108966107d9565b5b600084013567ffffffffffffffff8111156108b5576108b46107de565b5b6108c1868287016107f2565b935093505060206108d486828701610869565b9150509250925092565b6108e781610848565b82525050565b600060208201905061090260008301846108de565b92915050565b60006020828403121561091e5761091d6107d9565b5b600061092c84828501610869565b91505092915050565b600081519050919050565b600082825260208201905092915050565b60005b8381101561096f578082015181840152602081019050610954565b60008484015250505050565b6000601f19601f8301169050919050565b600061099782610935565b6109a18185610940565b93506109b1818560208601610951565b6109ba8161097b565b840191505092915050565b600060608201905081810360008301526109df818661098c565b90506109ee60208301856108de565b6109fb60408301846108de565b949350505050565b600073ffffffffffffffffffffffffffffffffffffffff82169050919050565b6000610a2e82610a03565b9050919050565b610a3e81610a23565b8114610a4957600080fd5b50565b600081359050610a5b81610a35565b92915050565b600060208284031215610a7757610a766107d9565b5b6000610a8584828501610a4c565b91505092915050565b60008115159050919050565b610aa381610a8e565b82525050565b60006080820190508181036000830152610ac3818761098c565b9050610ad260208301866108de565b610adf60408301856108de565b610aec6060830184610a9a565b95945050505050565b600082905092915050565b7f4e487b7100000000000000000000000000000000000000000000000000000000600052604160045260246000fd5b7f4e487b7100000000000000000000000000000000000000000000000000000000600052602260045260246000fd5b60006002820490506001821680610b7657607f821691505b602082108103610b8957610b88610b2f565b5b50919050565b60008190508160005260206000209050919050565b60006020601f8301049050919050565b600082821b905092915050565b600060088302610bf17fffffffffffffffffffffffffffffffffffffffffffffffffffffffffffffffff82610bb4565b610bfb8683610bb4565b95508019841693508086168417925050509392505050565b6000819050919050565b6000610c38610c33610c2e84610848565b610c13565b610848565b9050919050565b6000819050919050565b610c5283610c1d565b610c66610c5e82610c3f565b848454610bc1565b825550505050565b600090565b610c7b610c6e565b610c86818484610c49565b505050565b5b81811015610caa57610c9f600082610c73565b600181019050610c8c565b5050565b601f821115610cef57610cc081610b8f565b610cc984610ba4565b81016020851015610cd8578190505b610cec610ce485610ba4565b830182610c8b565b50505b505050565b600082821c905092915050565b6000610d1260001984600802610cf4565b1980831691505092915050565b6000610d2b8383610d01565b9150826002028217905092915050565b610d458383610af5565b67ffffffffffffffff811115610d5e57610d5d610b00565b5b610d688254610b5e565b610d73828285610cae565b6000601f831160018114610da25760008415610d90578287013590505b610d9a8582610d1f565b865550610e02565b601f198416610db086610b8f565b60005b82811015610dd857848901358255600182019150602085019450602081019050610db3565b86831015610df55784890135610df1601f891682610d01565b8355505b6001600288020188555050505b50505050505050565b7f4f6e6c792074686520636f6e7472616374206f776e65722063616e207769746860008201527f647261772066756e647300000000000000000000000000000000000000000000602082015250565b6000610e67602a83610940565b9150610e7282610e0b565b604082019050919050565b60006020820190508181036000830152610e9681610e5a565b9050919050565b7f496e73756666696369656e742062616c616e6365000000000000000000000000600082015250565b6000610ed3601483610940565b9150610ede82610e9d565b602082019050919050565b60006020820190508181036000830152610f0281610ec6565b9050919050565b7f55736572206d7573742068617665206465706f7369746564206265666f72652060008201527f696e6372656173696e672062616c616e63650000000000000000000000000000602082015250565b6000610f65603283610940565b9150610f7082610f09565b604082019050919050565b60006020820190508181036000830152610f9481610f58565b9050919050565b7f416d6f756e74206d7573742062652067726561746572207468616e2066656500600082015250565b6000610fd1601f83610940565b9150610fdc82610f9b565b602082019050919050565b6000602082019050818103600083015261100081610fc4565b9050919050565b7f4e487b7100000000000000000000000000000000000000000000000000000000600052601160045260246000fd5b600061104182610848565b915061104c83610848565b925082820390508181111561106457611063611007565b5b92915050565b600061107582610848565b915061108083610848565b925082820190508082111561109857611097611007565b5b9291505056fea2646970667358221220183451a60bd5e9c95da9d5fc21c2fccab4b5442e67bfb1b7588dbefe94d7617364736f6c63430008120033",
					"opcodes": "PUSH1 0x80 PUSH1 0x40 MSTORE CALLVALUE DUP1 ISZERO PUSH2 0x10 JUMPI PUSH1 0x0 DUP1 REVERT JUMPDEST POP CALLER PUSH1 0x1 PUSH1 0x0 PUSH2 0x100 EXP DUP2 SLOAD DUP2 PUSH20 0xFFFFFFFFFFFFFFFFFFFFFFFFFFFFFFFFFFFFFFFF MUL NOT AND SWAP1 DUP4 PUSH20 0xFFFFFFFFFFFFFFFFFFFFFFFFFFFFFFFFFFFFFFFF AND MUL OR SWAP1 SSTORE POP PUSH2 0x10D4 DUP1 PUSH2 0x61 PUSH1 0x0 CODECOPY PUSH1 0x0 RETURN INVALID PUSH1 0x80 PUSH1 0x40 MSTORE PUSH1 0x4 CALLDATASIZE LT PUSH2 0x70 JUMPI PUSH1 0x0 CALLDATALOAD PUSH1 0xE0 SHR DUP1 PUSH4 0x346C96E9 GT PUSH2 0x4E JUMPI DUP1 PUSH4 0x346C96E9 EQ PUSH2 0xF2 JUMPI DUP1 PUSH4 0x942886BE EQ PUSH2 0x10E JUMPI DUP1 PUSH4 0xA87430BA EQ PUSH2 0x13B JUMPI DUP1 PUSH4 0xD0E30DB0 EQ PUSH2 0x17B JUMPI PUSH2 0x70 JUMP JUMPDEST DUP1 PUSH4 0x8F6F76E EQ PUSH2 0x75 JUMPI DUP1 PUSH4 0x12065FE0 EQ PUSH2 0x9E JUMPI DUP1 PUSH4 0x2E1A7D4D EQ PUSH2 0xC9 JUMPI JUMPDEST PUSH1 0x0 DUP1 REVERT JUMPDEST CALLVALUE DUP1 ISZERO PUSH2 0x81 JUMPI PUSH1 0x0 DUP1 REVERT JUMPDEST POP PUSH2 0x9C PUSH1 0x4 DUP1 CALLDATASIZE SUB DUP2 ADD SWAP1 PUSH2 0x97 SWAP2 SWAP1 PUSH2 0x87E JUMP JUMPDEST PUSH2 0x185 JUMP JUMPDEST STOP JUMPDEST CALLVALUE DUP1 ISZERO PUSH2 0xAA JUMPI PUSH1 0x0 DUP1 REVERT JUMPDEST POP PUSH2 0xB3 PUSH2 0x221 JUMP JUMPDEST PUSH1 0x40 MLOAD PUSH2 0xC0 SWAP2 SWAP1 PUSH2 0x8ED JUMP JUMPDEST PUSH1 0x40 MLOAD DUP1 SWAP2 SUB SWAP1 RETURN JUMPDEST CALLVALUE DUP1 ISZERO PUSH2 0xD5 JUMPI PUSH1 0x0 DUP1 REVERT JUMPDEST POP PUSH2 0xF0 PUSH1 0x4 DUP1 CALLDATASIZE SUB DUP2 ADD SWAP1 PUSH2 0xEB SWAP2 SWAP1 PUSH2 0x908 JUMP JUMPDEST PUSH2 0x2B9 JUMP JUMPDEST STOP JUMPDEST PUSH2 0x10C PUSH1 0x4 DUP1 CALLDATASIZE SUB DUP2 ADD SWAP1 PUSH2 0x107 SWAP2 SWAP1 PUSH2 0x908 JUMP JUMPDEST PUSH2 0x3F8 JUMP JUMPDEST STOP JUMPDEST CALLVALUE DUP1 ISZERO PUSH2 0x11A JUMPI PUSH1 0x0 DUP1 REVERT JUMPDEST POP PUSH2 0x123 PUSH2 0x532 JUMP JUMPDEST PUSH1 0x40 MLOAD PUSH2 0x132 SWAP4 SWAP3 SWAP2 SWAP1 PUSH2 0x9C5 JUMP JUMPDEST PUSH1 0x40 MLOAD DUP1 SWAP2 SUB SWAP1 RETURN JUMPDEST CALLVALUE DUP1 ISZERO PUSH2 0x147 JUMPI PUSH1 0x0 DUP1 REVERT JUMPDEST POP PUSH2 0x162 PUSH1 0x4 DUP1 CALLDATASIZE SUB DUP2 ADD SWAP1 PUSH2 0x15D SWAP2 SWAP1 PUSH2 0xA61 JUMP JUMPDEST PUSH2 0x660 JUMP JUMPDEST PUSH1 0x40 MLOAD PUSH2 0x172 SWAP5 SWAP4 SWAP3 SWAP2 SWAP1 PUSH2 0xAA9 JUMP JUMPDEST PUSH1 0x40 MLOAD DUP1 SWAP2 SUB SWAP1 RETURN JUMPDEST PUSH2 0x183 PUSH2 0x725 JUMP JUMPDEST STOP JUMPDEST DUP3 DUP3 PUSH1 0x0 DUP1 CALLER PUSH20 0xFFFFFFFFFFFFFFFFFFFFFFFFFFFFFFFFFFFFFFFF AND PUSH20 0xFFFFFFFFFFFFFFFFFFFFFFFFFFFFFFFFFFFFFFFF AND DUP2 MSTORE PUSH1 0x20 ADD SWAP1 DUP2 MSTORE PUSH1 0x20 ADD PUSH1 0x0 KECCAK256 PUSH1 0x0 ADD SWAP2 DUP3 PUSH2 0x1D5 SWAP3 SWAP2 SWAP1 PUSH2 0xD3B JUMP JUMPDEST POP DUP1 PUSH1 0x0 DUP1 CALLER PUSH20 0xFFFFFFFFFFFFFFFFFFFFFFFFFFFFFFFFFFFFFFFF AND PUSH20 0xFFFFFFFFFFFFFFFFFFFFFFFFFFFFFFFFFFFFFFFF AND DUP2 MSTORE PUSH1 0x20 ADD SWAP1 DUP2 MSTORE PUSH1 0x20 ADD PUSH1 0x0 KECCAK256 PUSH1 0x1 ADD DUP2 SWAP1 SSTORE POP POP POP POP JUMP JUMPDEST PUSH1 0x0 PUSH1 0x1 PUSH1 0x0 SWAP1 SLOAD SWAP1 PUSH2 0x100 EXP SWAP1 DIV PUSH20 0xFFFFFFFFFFFFFFFFFFFFFFFFFFFFFFFFFFFFFFFF AND PUSH20 0xFFFFFFFFFFFFFFFFFFFFFFFFFFFFFFFFFFFFFFFF AND CALLER PUSH20 0xFFFFFFFFFFFFFFFFFFFFFFFFFFFFFFFFFFFFFFFF AND EQ PUSH2 0x2B3 JUMPI PUSH1 0x40 MLOAD PUSH32 0x8C379A000000000000000000000000000000000000000000000000000000000 DUP2 MSTORE PUSH1 0x4 ADD PUSH2 0x2AA SWAP1 PUSH2 0xE7D JUMP JUMPDEST PUSH1 0x40 MLOAD DUP1 SWAP2 SUB SWAP1 REVERT JUMPDEST SELFBALANCE SWAP1 POP SWAP1 JUMP JUMPDEST PUSH1 0x1 PUSH1 0x0 SWAP1 SLOAD SWAP1 PUSH2 0x100 EXP SWAP1 DIV PUSH20 0xFFFFFFFFFFFFFFFFFFFFFFFFFFFFFFFFFFFFFFFF AND PUSH20 0xFFFFFFFFFFFFFFFFFFFFFFFFFFFFFFFFFFFFFFFF AND CALLER PUSH20 0xFFFFFFFFFFFFFFFFFFFFFFFFFFFFFFFFFFFFFFFF AND EQ PUSH2 0x349 JUMPI PUSH1 0x40 MLOAD PUSH32 0x8C379A000000000000000000000000000000000000000000000000000000000 DUP2 MSTORE PUSH1 0x4 ADD PUSH2 0x340 SWAP1 PUSH2 0xE7D JUMP JUMPDEST PUSH1 0x40 MLOAD DUP1 SWAP2 SUB SWAP1 REVERT JUMPDEST DUP1 SELFBALANCE LT ISZERO PUSH2 0x38C JUMPI PUSH1 0x40 MLOAD PUSH32 0x8C379A000000000000000000000000000000000000000000000000000000000 DUP2 MSTORE PUSH1 0x4 ADD PUSH2 0x383 SWAP1 PUSH2 0xEE9 JUMP JUMPDEST PUSH1 0x40 MLOAD DUP1 SWAP2 SUB SWAP1 REVERT JUMPDEST PUSH1 0x1 PUSH1 0x0 SWAP1 SLOAD SWAP1 PUSH2 0x100 EXP SWAP1 DIV PUSH20 0xFFFFFFFFFFFFFFFFFFFFFFFFFFFFFFFFFFFFFFFF AND PUSH20 0xFFFFFFFFFFFFFFFFFFFFFFFFFFFFFFFFFFFFFFFF AND PUSH2 0x8FC DUP3 SWAP1 DUP2 ISZERO MUL SWAP1 PUSH1 0x40 MLOAD PUSH1 0x0 PUSH1 0x40 MLOAD DUP1 DUP4 SUB DUP2 DUP6 DUP9 DUP9 CALL SWAP4 POP POP POP POP ISZERO DUP1 ISZERO PUSH2 0x3F4 JUMPI RETURNDATASIZE PUSH1 0x0 DUP1 RETURNDATACOPY RETURNDATASIZE PUSH1 0x0 REVERT JUMPDEST POP POP JUMP JUMPDEST PUSH1 0x0 DUP1 CALLER PUSH20 0xFFFFFFFFFFFFFFFFFFFFFFFFFFFFFFFFFFFFFFFF AND PUSH20 0xFFFFFFFFFFFFFFFFFFFFFFFFFFFFFFFFFFFFFFFF AND DUP2 MSTORE PUSH1 0x20 ADD SWAP1 DUP2 MSTORE PUSH1 0x20 ADD PUSH1 0x0 KECCAK256 PUSH1 0x3 ADD PUSH1 0x0 SWAP1 SLOAD SWAP1 PUSH2 0x100 EXP SWAP1 DIV PUSH1 0xFF AND PUSH2 0x486 JUMPI PUSH1 0x40 MLOAD PUSH32 0x8C379A000000000000000000000000000000000000000000000000000000000 DUP2 MSTORE PUSH1 0x4 ADD PUSH2 0x47D SWAP1 PUSH2 0xF7B JUMP JUMPDEST PUSH1 0x40 MLOAD DUP1 SWAP2 SUB SWAP1 REVERT JUMPDEST DUP1 PUSH1 0xA DUP2 GT PUSH2 0x4CA JUMPI PUSH1 0x40 MLOAD PUSH32 0x8C379A000000000000000000000000000000000000000000000000000000000 DUP2 MSTORE PUSH1 0x4 ADD PUSH2 0x4C1 SWAP1 PUSH2 0xFE7 JUMP JUMPDEST PUSH1 0x40 MLOAD DUP1 SWAP2 SUB SWAP1 REVERT JUMPDEST PUSH1 0xA DUP3 PUSH2 0x4D7 SWAP2 SWAP1 PUSH2 0x1036 JUMP JUMPDEST PUSH1 0x0 DUP1 CALLER PUSH20 0xFFFFFFFFFFFFFFFFFFFFFFFFFFFFFFFFFFFFFFFF AND PUSH20 0xFFFFFFFFFFFFFFFFFFFFFFFFFFFFFFFFFFFFFFFF AND DUP2 MSTORE PUSH1 0x20 ADD SWAP1 DUP2 MSTORE PUSH1 0x20 ADD PUSH1 0x0 KECCAK256 PUSH1 0x2 ADD PUSH1 0x0 DUP3 DUP3 SLOAD PUSH2 0x527 SWAP2 SWAP1 PUSH2 0x106A JUMP JUMPDEST SWAP3 POP POP DUP2 SWAP1 SSTORE POP POP POP JUMP JUMPDEST PUSH1 0x60 PUSH1 0x0 DUP1 PUSH1 0x0 DUP1 PUSH1 0x0 CALLER PUSH20 0xFFFFFFFFFFFFFFFFFFFFFFFFFFFFFFFFFFFFFFFF AND PUSH20 0xFFFFFFFFFFFFFFFFFFFFFFFFFFFFFFFFFFFFFFFF AND DUP2 MSTORE PUSH1 0x20 ADD SWAP1 DUP2 MSTORE PUSH1 0x20 ADD PUSH1 0x0 KECCAK256 PUSH1 0x40 MLOAD DUP1 PUSH1 0x80 ADD PUSH1 0x40 MSTORE SWAP1 DUP2 PUSH1 0x0 DUP3 ADD DUP1 SLOAD PUSH2 0x592 SWAP1 PUSH2 0xB5E JUMP JUMPDEST DUP1 PUSH1 0x1F ADD PUSH1 0x20 DUP1 SWAP2 DIV MUL PUSH1 0x20 ADD PUSH1 0x40 MLOAD SWAP1 DUP2 ADD PUSH1 0x40 MSTORE DUP1 SWAP3 SWAP2 SWAP1 DUP2 DUP2 MSTORE PUSH1 0x20 ADD DUP3 DUP1 SLOAD PUSH2 0x5BE SWAP1 PUSH2 0xB5E JUMP JUMPDEST DUP1 ISZERO PUSH2 0x60B JUMPI DUP1 PUSH1 0x1F LT PUSH2 0x5E0 JUMPI PUSH2 0x100 DUP1 DUP4 SLOAD DIV MUL DUP4 MSTORE SWAP2 PUSH1 0x20 ADD SWAP2 PUSH2 0x60B JUMP JUMPDEST DUP3 ADD SWAP2 SWAP1 PUSH1 0x0 MSTORE PUSH1 0x20 PUSH1 0x0 KECCAK256 SWAP1 JUMPDEST DUP2 SLOAD DUP2 MSTORE SWAP1 PUSH1 0x1 ADD SWAP1 PUSH1 0x20 ADD DUP1 DUP4 GT PUSH2 0x5EE JUMPI DUP3 SWAP1 SUB PUSH1 0x1F AND DUP3 ADD SWAP2 JUMPDEST POP POP POP POP POP DUP2 MSTORE PUSH1 0x20 ADD PUSH1 0x1 DUP3 ADD SLOAD DUP2 MSTORE PUSH1 0x20 ADD PUSH1 0x2 DUP3 ADD SLOAD DUP2 MSTORE PUSH1 0x20 ADD PUSH1 0x3 DUP3 ADD PUSH1 0x0 SWAP1 SLOAD SWAP1 PUSH2 0x100 EXP SWAP1 DIV PUSH1 0xFF AND ISZERO ISZERO ISZERO ISZERO DUP2 MSTORE POP POP SWAP1 POP DUP1 PUSH1 0x0 ADD MLOAD DUP2 PUSH1 0x20 ADD MLOAD DUP3 PUSH1 0x40 ADD MLOAD SWAP4 POP SWAP4 POP SWAP4 POP POP SWAP1 SWAP2 SWAP3 JUMP JUMPDEST PUSH1 0x0 PUSH1 0x20 MSTORE DUP1 PUSH1 0x0 MSTORE PUSH1 0x40 PUSH1 0x0 KECCAK256 PUSH1 0x0 SWAP2 POP SWAP1 POP DUP1 PUSH1 0x0 ADD DUP1 SLOAD PUSH2 0x683 SWAP1 PUSH2 0xB5E JUMP JUMPDEST DUP1 PUSH1 0x1F ADD PUSH1 0x20 DUP1 SWAP2 DIV MUL PUSH1 0x20 ADD PUSH1 0x40 MLOAD SWAP1 DUP2 ADD PUSH1 0x40 MSTORE DUP1 SWAP3 SWAP2 SWAP1 DUP2 DUP2 MSTORE PUSH1 0x20 ADD DUP3 DUP1 SLOAD PUSH2 0x6AF SWAP1 PUSH2 0xB5E JUMP JUMPDEST DUP1 ISZERO PUSH2 0x6FC JUMPI DUP1 PUSH1 0x1F LT PUSH2 0x6D1 JUMPI PUSH2 0x100 DUP1 DUP4 SLOAD DIV MUL DUP4 MSTORE SWAP2 PUSH1 0x20 ADD SWAP2 PUSH2 0x6FC JUMP JUMPDEST DUP3 ADD SWAP2 SWAP1 PUSH1 0x0 MSTORE PUSH1 0x20 PUSH1 0x0 KECCAK256 SWAP1 JUMPDEST DUP2 SLOAD DUP2 MSTORE SWAP1 PUSH1 0x1 ADD SWAP1 PUSH1 0x20 ADD DUP1 DUP4 GT PUSH2 0x6DF JUMPI DUP3 SWAP1 SUB PUSH1 0x1F AND DUP3 ADD SWAP2 JUMPDEST POP POP POP POP POP SWAP1 DUP1 PUSH1 0x1 ADD SLOAD SWAP1 DUP1 PUSH1 0x2 ADD SLOAD SWAP1 DUP1 PUSH1 0x3 ADD PUSH1 0x0 SWAP1 SLOAD SWAP1 PUSH2 0x100 EXP SWAP1 DIV PUSH1 0xFF AND SWAP1 POP DUP5 JUMP JUMPDEST CALLVALUE PUSH1 0x0 DUP1 CALLER PUSH20 0xFFFFFFFFFFFFFFFFFFFFFFFFFFFFFFFFFFFFFFFF AND PUSH20 0xFFFFFFFFFFFFFFFFFFFFFFFFFFFFFFFFFFFFFFFF AND DUP2 MSTORE PUSH1 0x20 ADD SWAP1 DUP2 MSTORE PUSH1 0x20 ADD PUSH1 0x0 KECCAK256 PUSH1 0x2 ADD PUSH1 0x0 DUP3 DUP3 SLOAD PUSH2 0x776 SWAP2 SWAP1 PUSH2 0x106A JUMP JUMPDEST SWAP3 POP POP DUP2 SWAP1 SSTORE POP PUSH1 0x1 PUSH1 0x0 DUP1 CALLER PUSH20 0xFFFFFFFFFFFFFFFFFFFFFFFFFFFFFFFFFFFFFFFF AND PUSH20 0xFFFFFFFFFFFFFFFFFFFFFFFFFFFFFFFFFFFFFFFF AND DUP2 MSTORE PUSH1 0x20 ADD SWAP1 DUP2 MSTORE PUSH1 0x20 ADD PUSH1 0x0 KECCAK256 PUSH1 0x3 ADD PUSH1 0x0 PUSH2 0x100 EXP DUP2 SLOAD DUP2 PUSH1 0xFF MUL NOT AND SWAP1 DUP4 ISZERO ISZERO MUL OR SWAP1 SSTORE POP JUMP JUMPDEST PUSH1 0x0 DUP1 REVERT JUMPDEST PUSH1 0x0 DUP1 REVERT JUMPDEST PUSH1 0x0 DUP1 REVERT JUMPDEST PUSH1 0x0 DUP1 REVERT JUMPDEST PUSH1 0x0 DUP1 REVERT JUMPDEST PUSH1 0x0 DUP1 DUP4 PUSH1 0x1F DUP5 ADD SLT PUSH2 0x808 JUMPI PUSH2 0x807 PUSH2 0x7E3 JUMP JUMPDEST JUMPDEST DUP3 CALLDATALOAD SWAP1 POP PUSH8 0xFFFFFFFFFFFFFFFF DUP2 GT ISZERO PUSH2 0x825 JUMPI PUSH2 0x824 PUSH2 0x7E8 JUMP JUMPDEST JUMPDEST PUSH1 0x20 DUP4 ADD SWAP2 POP DUP4 PUSH1 0x1 DUP3 MUL DUP4 ADD GT ISZERO PUSH2 0x841 JUMPI PUSH2 0x840 PUSH2 0x7ED JUMP JUMPDEST JUMPDEST SWAP3 POP SWAP3 SWAP1 POP JUMP JUMPDEST PUSH1 0x0 DUP2 SWAP1 POP SWAP2 SWAP1 POP JUMP JUMPDEST PUSH2 0x85B DUP2 PUSH2 0x848 JUMP JUMPDEST DUP2 EQ PUSH2 0x866 JUMPI PUSH1 0x0 DUP1 REVERT JUMPDEST POP JUMP JUMPDEST PUSH1 0x0 DUP2 CALLDATALOAD SWAP1 POP PUSH2 0x878 DUP2 PUSH2 0x852 JUMP JUMPDEST SWAP3 SWAP2 POP POP JUMP JUMPDEST PUSH1 0x0 DUP1 PUSH1 0x0 PUSH1 0x40 DUP5 DUP7 SUB SLT ISZERO PUSH2 0x897 JUMPI PUSH2 0x896 PUSH2 0x7D9 JUMP JUMPDEST JUMPDEST PUSH1 0x0 DUP5 ADD CALLDATALOAD PUSH8 0xFFFFFFFFFFFFFFFF DUP2 GT ISZERO PUSH2 0x8B5 JUMPI PUSH2 0x8B4 PUSH2 0x7DE JUMP JUMPDEST JUMPDEST PUSH2 0x8C1 DUP7 DUP3 DUP8 ADD PUSH2 0x7F2 JUMP JUMPDEST SWAP4 POP SWAP4 POP POP PUSH1 0x20 PUSH2 0x8D4 DUP7 DUP3 DUP8 ADD PUSH2 0x869 JUMP JUMPDEST SWAP2 POP POP SWAP3 POP SWAP3 POP SWAP3 JUMP JUMPDEST PUSH2 0x8E7 DUP2 PUSH2 0x848 JUMP JUMPDEST DUP3 MSTORE POP POP JUMP JUMPDEST PUSH1 0x0 PUSH1 0x20 DUP3 ADD SWAP1 POP PUSH2 0x902 PUSH1 0x0 DUP4 ADD DUP5 PUSH2 0x8DE JUMP JUMPDEST SWAP3 SWAP2 POP POP JUMP JUMPDEST PUSH1 0x0 PUSH1 0x20 DUP3 DUP5 SUB SLT ISZERO PUSH2 0x91E JUMPI PUSH2 0x91D PUSH2 0x7D9 JUMP JUMPDEST JUMPDEST PUSH1 0x0 PUSH2 0x92C DUP5 DUP3 DUP6 ADD PUSH2 0x869 JUMP JUMPDEST SWAP2 POP POP SWAP3 SWAP2 POP POP JUMP JUMPDEST PUSH1 0x0 DUP2 MLOAD SWAP1 POP SWAP2 SWAP1 POP JUMP JUMPDEST PUSH1 0x0 DUP3 DUP3 MSTORE PUSH1 0x20 DUP3 ADD SWAP1 POP SWAP3 SWAP2 POP POP JUMP JUMPDEST PUSH1 0x0 JUMPDEST DUP4 DUP2 LT ISZERO PUSH2 0x96F JUMPI DUP1 DUP3 ADD MLOAD DUP2 DUP5 ADD MSTORE PUSH1 0x20 DUP2 ADD SWAP1 POP PUSH2 0x954 JUMP JUMPDEST PUSH1 0x0 DUP5 DUP5 ADD MSTORE POP POP POP POP JUMP JUMPDEST PUSH1 0x0 PUSH1 0x1F NOT PUSH1 0x1F DUP4 ADD AND SWAP1 POP SWAP2 SWAP1 POP JUMP JUMPDEST PUSH1 0x0 PUSH2 0x997 DUP3 PUSH2 0x935 JUMP JUMPDEST PUSH2 0x9A1 DUP2 DUP6 PUSH2 0x940 JUMP JUMPDEST SWAP4 POP PUSH2 0x9B1 DUP2 DUP6 PUSH1 0x20 DUP7 ADD PUSH2 0x951 JUMP JUMPDEST PUSH2 0x9BA DUP2 PUSH2 0x97B JUMP JUMPDEST DUP5 ADD SWAP2 POP POP SWAP3 SWAP2 POP POP JUMP JUMPDEST PUSH1 0x0 PUSH1 0x60 DUP3 ADD SWAP1 POP DUP2 DUP2 SUB PUSH1 0x0 DUP4 ADD MSTORE PUSH2 0x9DF DUP2 DUP7 PUSH2 0x98C JUMP JUMPDEST SWAP1 POP PUSH2 0x9EE PUSH1 0x20 DUP4 ADD DUP6 PUSH2 0x8DE JUMP JUMPDEST PUSH2 0x9FB PUSH1 0x40 DUP4 ADD DUP5 PUSH2 0x8DE JUMP JUMPDEST SWAP5 SWAP4 POP POP POP POP JUMP JUMPDEST PUSH1 0x0 PUSH20 0xFFFFFFFFFFFFFFFFFFFFFFFFFFFFFFFFFFFFFFFF DUP3 AND SWAP1 POP SWAP2 SWAP1 POP JUMP JUMPDEST PUSH1 0x0 PUSH2 0xA2E DUP3 PUSH2 0xA03 JUMP JUMPDEST SWAP1 POP SWAP2 SWAP1 POP JUMP JUMPDEST PUSH2 0xA3E DUP2 PUSH2 0xA23 JUMP JUMPDEST DUP2 EQ PUSH2 0xA49 JUMPI PUSH1 0x0 DUP1 REVERT JUMPDEST POP JUMP JUMPDEST PUSH1 0x0 DUP2 CALLDATALOAD SWAP1 POP PUSH2 0xA5B DUP2 PUSH2 0xA35 JUMP JUMPDEST SWAP3 SWAP2 POP POP JUMP JUMPDEST PUSH1 0x0 PUSH1 0x20 DUP3 DUP5 SUB SLT ISZERO PUSH2 0xA77 JUMPI PUSH2 0xA76 PUSH2 0x7D9 JUMP JUMPDEST JUMPDEST PUSH1 0x0 PUSH2 0xA85 DUP5 DUP3 DUP6 ADD PUSH2 0xA4C JUMP JUMPDEST SWAP2 POP POP SWAP3 SWAP2 POP POP JUMP JUMPDEST PUSH1 0x0 DUP2 ISZERO ISZERO SWAP1 POP SWAP2 SWAP1 POP JUMP JUMPDEST PUSH2 0xAA3 DUP2 PUSH2 0xA8E JUMP JUMPDEST DUP3 MSTORE POP POP JUMP JUMPDEST PUSH1 0x0 PUSH1 0x80 DUP3 ADD SWAP1 POP DUP2 DUP2 SUB PUSH1 0x0 DUP4 ADD MSTORE PUSH2 0xAC3 DUP2 DUP8 PUSH2 0x98C JUMP JUMPDEST SWAP1 POP PUSH2 0xAD2 PUSH1 0x20 DUP4 ADD DUP7 PUSH2 0x8DE JUMP JUMPDEST PUSH2 0xADF PUSH1 0x40 DUP4 ADD DUP6 PUSH2 0x8DE JUMP JUMPDEST PUSH2 0xAEC PUSH1 0x60 DUP4 ADD DUP5 PUSH2 0xA9A JUMP JUMPDEST SWAP6 SWAP5 POP POP POP POP POP JUMP JUMPDEST PUSH1 0x0 DUP3 SWAP1 POP SWAP3 SWAP2 POP POP JUMP JUMPDEST PUSH32 0x4E487B7100000000000000000000000000000000000000000000000000000000 PUSH1 0x0 MSTORE PUSH1 0x41 PUSH1 0x4 MSTORE PUSH1 0x24 PUSH1 0x0 REVERT JUMPDEST PUSH32 0x4E487B7100000000000000000000000000000000000000000000000000000000 PUSH1 0x0 MSTORE PUSH1 0x22 PUSH1 0x4 MSTORE PUSH1 0x24 PUSH1 0x0 REVERT JUMPDEST PUSH1 0x0 PUSH1 0x2 DUP3 DIV SWAP1 POP PUSH1 0x1 DUP3 AND DUP1 PUSH2 0xB76 JUMPI PUSH1 0x7F DUP3 AND SWAP2 POP JUMPDEST PUSH1 0x20 DUP3 LT DUP2 SUB PUSH2 0xB89 JUMPI PUSH2 0xB88 PUSH2 0xB2F JUMP JUMPDEST JUMPDEST POP SWAP2 SWAP1 POP JUMP JUMPDEST PUSH1 0x0 DUP2 SWAP1 POP DUP2 PUSH1 0x0 MSTORE PUSH1 0x20 PUSH1 0x0 KECCAK256 SWAP1 POP SWAP2 SWAP1 POP JUMP JUMPDEST PUSH1 0x0 PUSH1 0x20 PUSH1 0x1F DUP4 ADD DIV SWAP1 POP SWAP2 SWAP1 POP JUMP JUMPDEST PUSH1 0x0 DUP3 DUP3 SHL SWAP1 POP SWAP3 SWAP2 POP POP JUMP JUMPDEST PUSH1 0x0 PUSH1 0x8 DUP4 MUL PUSH2 0xBF1 PUSH32 0xFFFFFFFFFFFFFFFFFFFFFFFFFFFFFFFFFFFFFFFFFFFFFFFFFFFFFFFFFFFFFFFF DUP3 PUSH2 0xBB4 JUMP JUMPDEST PUSH2 0xBFB DUP7 DUP4 PUSH2 0xBB4 JUMP JUMPDEST SWAP6 POP DUP1 NOT DUP5 AND SWAP4 POP DUP1 DUP7 AND DUP5 OR SWAP3 POP POP POP SWAP4 SWAP3 POP POP POP JUMP JUMPDEST PUSH1 0x0 DUP2 SWAP1 POP SWAP2 SWAP1 POP JUMP JUMPDEST PUSH1 0x0 PUSH2 0xC38 PUSH2 0xC33 PUSH2 0xC2E DUP5 PUSH2 0x848 JUMP JUMPDEST PUSH2 0xC13 JUMP JUMPDEST PUSH2 0x848 JUMP JUMPDEST SWAP1 POP SWAP2 SWAP1 POP JUMP JUMPDEST PUSH1 0x0 DUP2 SWAP1 POP SWAP2 SWAP1 POP JUMP JUMPDEST PUSH2 0xC52 DUP4 PUSH2 0xC1D JUMP JUMPDEST PUSH2 0xC66 PUSH2 0xC5E DUP3 PUSH2 0xC3F JUMP JUMPDEST DUP5 DUP5 SLOAD PUSH2 0xBC1 JUMP JUMPDEST DUP3 SSTORE POP POP POP POP JUMP JUMPDEST PUSH1 0x0 SWAP1 JUMP JUMPDEST PUSH2 0xC7B PUSH2 0xC6E JUMP JUMPDEST PUSH2 0xC86 DUP2 DUP5 DUP5 PUSH2 0xC49 JUMP JUMPDEST POP POP POP JUMP JUMPDEST JUMPDEST DUP2 DUP2 LT ISZERO PUSH2 0xCAA JUMPI PUSH2 0xC9F PUSH1 0x0 DUP3 PUSH2 0xC73 JUMP JUMPDEST PUSH1 0x1 DUP2 ADD SWAP1 POP PUSH2 0xC8C JUMP JUMPDEST POP POP JUMP JUMPDEST PUSH1 0x1F DUP3 GT ISZERO PUSH2 0xCEF JUMPI PUSH2 0xCC0 DUP2 PUSH2 0xB8F JUMP JUMPDEST PUSH2 0xCC9 DUP5 PUSH2 0xBA4 JUMP JUMPDEST DUP2 ADD PUSH1 0x20 DUP6 LT ISZERO PUSH2 0xCD8 JUMPI DUP2 SWAP1 POP JUMPDEST PUSH2 0xCEC PUSH2 0xCE4 DUP6 PUSH2 0xBA4 JUMP JUMPDEST DUP4 ADD DUP3 PUSH2 0xC8B JUMP JUMPDEST POP POP JUMPDEST POP POP POP JUMP JUMPDEST PUSH1 0x0 DUP3 DUP3 SHR SWAP1 POP SWAP3 SWAP2 POP POP JUMP JUMPDEST PUSH1 0x0 PUSH2 0xD12 PUSH1 0x0 NOT DUP5 PUSH1 0x8 MUL PUSH2 0xCF4 JUMP JUMPDEST NOT DUP1 DUP4 AND SWAP2 POP POP SWAP3 SWAP2 POP POP JUMP JUMPDEST PUSH1 0x0 PUSH2 0xD2B DUP4 DUP4 PUSH2 0xD01 JUMP JUMPDEST SWAP2 POP DUP3 PUSH1 0x2 MUL DUP3 OR SWAP1 POP SWAP3 SWAP2 POP POP JUMP JUMPDEST PUSH2 0xD45 DUP4 DUP4 PUSH2 0xAF5 JUMP JUMPDEST PUSH8 0xFFFFFFFFFFFFFFFF DUP2 GT ISZERO PUSH2 0xD5E JUMPI PUSH2 0xD5D PUSH2 0xB00 JUMP JUMPDEST JUMPDEST PUSH2 0xD68 DUP3 SLOAD PUSH2 0xB5E JUMP JUMPDEST PUSH2 0xD73 DUP3 DUP3 DUP6 PUSH2 0xCAE JUMP JUMPDEST PUSH1 0x0 PUSH1 0x1F DUP4 GT PUSH1 0x1 DUP2 EQ PUSH2 0xDA2 JUMPI PUSH1 0x0 DUP5 ISZERO PUSH2 0xD90 JUMPI DUP3 DUP8 ADD CALLDATALOAD SWAP1 POP JUMPDEST PUSH2 0xD9A DUP6 DUP3 PUSH2 0xD1F JUMP JUMPDEST DUP7 SSTORE POP PUSH2 0xE02 JUMP JUMPDEST PUSH1 0x1F NOT DUP5 AND PUSH2 0xDB0 DUP7 PUSH2 0xB8F JUMP JUMPDEST PUSH1 0x0 JUMPDEST DUP3 DUP2 LT ISZERO PUSH2 0xDD8 JUMPI DUP5 DUP10 ADD CALLDATALOAD DUP3 SSTORE PUSH1 0x1 DUP3 ADD SWAP2 POP PUSH1 0x20 DUP6 ADD SWAP5 POP PUSH1 0x20 DUP2 ADD SWAP1 POP PUSH2 0xDB3 JUMP JUMPDEST DUP7 DUP4 LT ISZERO PUSH2 0xDF5 JUMPI DUP5 DUP10 ADD CALLDATALOAD PUSH2 0xDF1 PUSH1 0x1F DUP10 AND DUP3 PUSH2 0xD01 JUMP JUMPDEST DUP4 SSTORE POP JUMPDEST PUSH1 0x1 PUSH1 0x2 DUP9 MUL ADD DUP9 SSTORE POP POP POP JUMPDEST POP POP POP POP POP POP POP JUMP JUMPDEST PUSH32 0x4F6E6C792074686520636F6E7472616374206F776E65722063616E2077697468 PUSH1 0x0 DUP3 ADD MSTORE PUSH32 0x647261772066756E647300000000000000000000000000000000000000000000 PUSH1 0x20 DUP3 ADD MSTORE POP JUMP JUMPDEST PUSH1 0x0 PUSH2 0xE67 PUSH1 0x2A DUP4 PUSH2 0x940 JUMP JUMPDEST SWAP2 POP PUSH2 0xE72 DUP3 PUSH2 0xE0B JUMP JUMPDEST PUSH1 0x40 DUP3 ADD SWAP1 POP SWAP2 SWAP1 POP JUMP JUMPDEST PUSH1 0x0 PUSH1 0x20 DUP3 ADD SWAP1 POP DUP2 DUP2 SUB PUSH1 0x0 DUP4 ADD MSTORE PUSH2 0xE96 DUP2 PUSH2 0xE5A JUMP JUMPDEST SWAP1 POP SWAP2 SWAP1 POP JUMP JUMPDEST PUSH32 0x496E73756666696369656E742062616C616E6365000000000000000000000000 PUSH1 0x0 DUP3 ADD MSTORE POP JUMP JUMPDEST PUSH1 0x0 PUSH2 0xED3 PUSH1 0x14 DUP4 PUSH2 0x940 JUMP JUMPDEST SWAP2 POP PUSH2 0xEDE DUP3 PUSH2 0xE9D JUMP JUMPDEST PUSH1 0x20 DUP3 ADD SWAP1 POP SWAP2 SWAP1 POP JUMP JUMPDEST PUSH1 0x0 PUSH1 0x20 DUP3 ADD SWAP1 POP DUP2 DUP2 SUB PUSH1 0x0 DUP4 ADD MSTORE PUSH2 0xF02 DUP2 PUSH2 0xEC6 JUMP JUMPDEST SWAP1 POP SWAP2 SWAP1 POP JUMP JUMPDEST PUSH32 0x55736572206D7573742068617665206465706F7369746564206265666F726520 PUSH1 0x0 DUP3 ADD MSTORE PUSH32 0x696E6372656173696E672062616C616E63650000000000000000000000000000 PUSH1 0x20 DUP3 ADD MSTORE POP JUMP JUMPDEST PUSH1 0x0 PUSH2 0xF65 PUSH1 0x32 DUP4 PUSH2 0x940 JUMP JUMPDEST SWAP2 POP PUSH2 0xF70 DUP3 PUSH2 0xF09 JUMP JUMPDEST PUSH1 0x40 DUP3 ADD SWAP1 POP SWAP2 SWAP1 POP JUMP JUMPDEST PUSH1 0x0 PUSH1 0x20 DUP3 ADD SWAP1 POP DUP2 DUP2 SUB PUSH1 0x0 DUP4 ADD MSTORE PUSH2 0xF94 DUP2 PUSH2 0xF58 JUMP JUMPDEST SWAP1 POP SWAP2 SWAP1 POP JUMP JUMPDEST PUSH32 0x416D6F756E74206D7573742062652067726561746572207468616E2066656500 PUSH1 0x0 DUP3 ADD MSTORE POP JUMP JUMPDEST PUSH1 0x0 PUSH2 0xFD1 PUSH1 0x1F DUP4 PUSH2 0x940 JUMP JUMPDEST SWAP2 POP PUSH2 0xFDC DUP3 PUSH2 0xF9B JUMP JUMPDEST PUSH1 0x20 DUP3 ADD SWAP1 POP SWAP2 SWAP1 POP JUMP JUMPDEST PUSH1 0x0 PUSH1 0x20 DUP3 ADD SWAP1 POP DUP2 DUP2 SUB PUSH1 0x0 DUP4 ADD MSTORE PUSH2 0x1000 DUP2 PUSH2 0xFC4 JUMP JUMPDEST SWAP1 POP SWAP2 SWAP1 POP JUMP JUMPDEST PUSH32 0x4E487B7100000000000000000000000000000000000000000000000000000000 PUSH1 0x0 MSTORE PUSH1 0x11 PUSH1 0x4 MSTORE PUSH1 0x24 PUSH1 0x0 REVERT JUMPDEST PUSH1 0x0 PUSH2 0x1041 DUP3 PUSH2 0x848 JUMP JUMPDEST SWAP2 POP PUSH2 0x104C DUP4 PUSH2 0x848 JUMP JUMPDEST SWAP3 POP DUP3 DUP3 SUB SWAP1 POP DUP2 DUP2 GT ISZERO PUSH2 0x1064 JUMPI PUSH2 0x1063 PUSH2 0x1007 JUMP JUMPDEST JUMPDEST SWAP3 SWAP2 POP POP JUMP JUMPDEST PUSH1 0x0 PUSH2 0x1075 DUP3 PUSH2 0x848 JUMP JUMPDEST SWAP2 POP PUSH2 0x1080 DUP4 PUSH2 0x848 JUMP JUMPDEST SWAP3 POP DUP3 DUP3 ADD SWAP1 POP DUP1 DUP3 GT ISZERO PUSH2 0x1098 JUMPI PUSH2 0x1097 PUSH2 0x1007 JUMP JUMPDEST JUMPDEST SWAP3 SWAP2 POP POP JUMP INVALID LOG2 PUSH5 0x6970667358 0x22 SLT KECCAK256 XOR CALLVALUE MLOAD 0xA6 SIGNEXTEND 0xD5 0xE9 0xC9 0x5D 0xA9 0xD5 0xFC 0x21 0xC2 0xFC 0xCA 0xB4 0xB5 PREVRANDAO 0x2E PUSH8 0xBFB1B7588DBEFE94 0xD7 PUSH2 0x7364 PUSH20 0x6F6C634300081200330000000000000000000000 "
				},
				"gasEstimates": {
					"creation": {
						"codeDepositCost": "861600",
						"executionCost": "25162",
						"totalCost": "886762"
					},
					"external": {
						"addFund(uint256)": "infinite",
						"deposit()": "infinite",
						"getBalance()": "2647",
						"getUserDetails()": "infinite",
						"setUserDetails(string,uint256)": "infinite",
						"users(address)": "infinite",
						"withdraw(uint256)": "infinite"
					},
					"internal": {
						"AmountToSmall()": "infinite"
					}
				},
				"methodIdentifiers": {
					"addFund(uint256)": "346c96e9",
					"deposit()": "d0e30db0",
					"getBalance()": "12065fe0",
					"getUserDetails()": "942886be",
					"setUserDetails(string,uint256)": "08f6f76e",
					"users(address)": "a87430ba",
					"withdraw(uint256)": "2e1a7d4d"
				}
			},
			"storageLayout": {
				"storage": [
					{
						"astId": 15,
						"contract": "assignments/modifiers.sol:UserInfo",
						"label": "users",
						"offset": 0,
						"slot": "0",
						"type": "t_mapping(t_address,t_struct(User)10_storage)"
					},
					{
						"astId": 58,
						"contract": "assignments/modifiers.sol:UserInfo",
						"label": "owner",
						"offset": 0,
						"slot": "1",
						"type": "t_address_payable"
					}
				],
				"types": {
					"t_address": {
						"encoding": "inplace",
						"label": "address",
						"numberOfBytes": "20"
					},
					"t_address_payable": {
						"encoding": "inplace",
						"label": "address payable",
						"numberOfBytes": "20"
					},
					"t_bool": {
						"encoding": "inplace",
						"label": "bool",
						"numberOfBytes": "1"
					},
					"t_mapping(t_address,t_struct(User)10_storage)": {
						"encoding": "mapping",
						"key": "t_address",
						"label": "mapping(address => struct UserInfo.User)",
						"numberOfBytes": "32",
						"value": "t_struct(User)10_storage"
					},
					"t_string_storage": {
						"encoding": "bytes",
						"label": "string",
						"numberOfBytes": "32"
					},
					"t_struct(User)10_storage": {
						"encoding": "inplace",
						"label": "struct UserInfo.User",
						"members": [
							{
								"astId": 3,
								"contract": "assignments/modifiers.sol:UserInfo",
								"label": "name",
								"offset": 0,
								"slot": "0",
								"type": "t_string_storage"
							},
							{
								"astId": 5,
								"contract": "assignments/modifiers.sol:UserInfo",
								"label": "age",
								"offset": 0,
								"slot": "1",
								"type": "t_uint256"
							},
							{
								"astId": 7,
								"contract": "assignments/modifiers.sol:UserInfo",
								"label": "balance",
								"offset": 0,
								"slot": "2",
								"type": "t_uint256"
							},
							{
								"astId": 9,
								"contract": "assignments/modifiers.sol:UserInfo",
								"label": "hasDeposited",
								"offset": 0,
								"slot": "3",
								"type": "t_bool"
							}
						],
						"numberOfBytes": "128"
					},
					"t_uint256": {
						"encoding": "inplace",
						"label": "uint256",
						"numberOfBytes": "32"
					}
				}
			},
			"userdoc": {
				"kind": "user",
				"methods": {},
				"version": 1
			}
		}
	}
}